00036252862622oZELRaYqvZK48q5Aw0nAU0pqD4oGzF55nGV              LRxrz                                        00006ycOLrSkiHo     71961566YTXXMKzmImxiCo kUqqGxjzacyBGzQhkmalua        PB461486817731gUkJvXtcoZHY000000000013PB20200518100068557549430000005     3b9zL6r7at29JrGIArboSobqrXrArMKh
39341448694360lSg92IxuGZb70F                                   HDDl                                         00515lqbLPkj        09258409eJRVdNUJ       uDaXIqrYVRlcyVRdRDy           PB917983144408hEr1gXGEJSF1000000000005PB20120805130067003545340008392     Og0Rr5WhNM9Or2VK7D64GpFPe0Y5mbbT
64928574488622dxkg9gNZ3eEsT80CcCGgWa0cBN7H                     TZVsahtiILFBpvvPjGoBLGIynG                   00508vBVeyJnNdSicVO 30072843deoozbQHMg     cvAOaQJgE                     PB989642938049ZtbbGpYXD6An000000000003PB20140608040025648794610000036     N00cssvf5WAB2gBdVLKGc4t7bUQfiZYG
536806473757326nTa0nc6hXcT3Wd9Ia3cKxJPGYcr7OjQaFA6CWMCE2       yvlxztnUNEYsgiLiIxmIEDXAp                    00076yAiPQYkwtHE    05253455awDBFmusVKrjX  PBDdlgIDqjEuraCpqYfejunDyeuG  PB831398223710E0l6CfrOQQPP000000000014PB20200815110013210487600000088     zc6wu5v0hI0hVoGFjHMwmmOoHMGgHKJd
73564043037174hU9l9Tgd34YixWSc7NNBLU                           ZZmSKtkKfhOrExSvGCeXNGidvnfL                 02151PRjrpszJcMWCrD 89476787WsjFnTvrXUxz   vVyDyyhwrCCUEtD               PB278941013161H6eMcp8w322g000000000010PB20131015090071761854030000812     R9xK5VJQuvaOEM5cGC1hSA4hJRByZvF4
78712477418906hyCkxAVfrmb51s0PWwqr                             StQKpygpdZWFOTh                              00008TfGDasIsrfms   98078570qCOXZKKFJH     MUcaHCxCRcJWFOMTDMUVEfofligG  PB135914088489jvrdhMSN0FxM000000000010PB20180916080073466915290000007     GtJPrV3sc4GT8ZakXxHddWy7J7nZxHv3
73364807513990bLMXpMcZgRe9Xlde                                 DpkSQByFaEDVIPYzIdPEeukGFhqJBOZBsto          00007XwwdzOG        33548697uTQ            scIZrLuG                      PB266919574278ILPEXN9SK4Xj000000000007PB20170507150104502782190000078     eofAbibFnEkYpRF4Z4lbEvANiV8vdFQ4
28706082090773B8qApPwZZsO8aqYsefJP4TZSYG7cxT6IfFuXBgHp4p5ylvi  aueiChgVgfbwLrIcoQFACrKY                     05101NJJP           38259958CzpCFXuaKYOTq  fFELTDxxCFKwQggwPlWosWGd      PB835135619409d8fBjAMuDdQR000000000006PB20140718160068486200110026995     wIPF6cyVC3aAZBNtxb7s8v02VU9tVWsk
00049804192918zf0KCVak3DwH5loa                                 ldYpWGgomtMOWSdB                             02222FRYkA          87812971JCnqboqkcAQfYe RaFmddeqLapCQyN               PB6969459455660umpFeOkZDd4000000000012PB20180701010069884057780000005     oGw0yDGptRyZwnGZrSVRgOTRlhSKqTtM
14113728737110wmNMuqLsLzWJPulojFU622VdwZAlaSHvudAE             xKSbPYEqnrnDTLRUNXMxnpVtuLcJnDefyBEMEdKFggZB 43783j              60995140aVa            HeAuVhKhvNayHDmMHcPHxTkqahpw  PB296009924492DOutyaB1qGxg000000000013PB20200114120067508827980000070     zBCGVSEalX9NhvNJyr41P9JdmqksJBIH
00031828810274bpZK6XcVm7Uy9EjFXOPniiFteLi2J6Fob7MtZgjF         ingTnVMMGXBVsAYmTFxZ                         00737rrUlRIYPbehbD  06092787kvtgWbiNlRLk   v                             PB7522344775470YlvjkzXv7hq000000000008PB20150610110021140970170000001     nDzbRs2AK4SGGyAa13kkUJAyYhbU50k8
44365114104747Rf9tJzxMvrMXWqa2QswUgyhhG290TU                   GiZEnsbzmuLquPiaetI                          00005nvWkDjk        54403003dfLvikMGIcZ    xsffoLeLDIBozczALNoQxuzHdbqQ  PB981872323648ankptWmxbljs000000000004PB20201206030075335172040053123     5aqCTEyAOcIHpzcawZvKyxcF65TxlJ5a
00021835636560EHeBy44am4RYrd4Cc8D                              oBCGxQGwUbAOVZBbpDQOjwkOtUkVHI               08980MmzsAHRow      73028155WogaBPFemMWr   idyBbiHvFEdvCouhaXSSfzoVBy    PB185083762445vwuT0FKRxxyg000000000001PB20150802050031174825900014943     2aBNYy1kgsHx6Id9kCYmAuKfcitIqEGI
05626461116579fL9n3XiINNbBfnwNFesPC6n7wjMGW                    copdEspYHAJbZXfiYfQZpkOOrICFdHoHdDPLt        05543h              88297015bNPQ           zmHVkVLcDRESACGqyfUzcYFv      PB500295864907vvjRfoVh06jc000000000007PB20140210140070075764110000196     kZN9UxDMEHURcbd1uqYt1V50AgrIwgpB
16814077131663FvnvpyuyDiEizwGt2TuUaXbYv8Wq                     ygFwVASjtppM                                 06075bl             70468836dRJQLIsPfgkT   AwnDNrqNciFOBcqavzfiObtJyLTCG PB851467222240PuymgSYqdxB5000000000002PB20180303080042975737150000096     GjjOXf7FsHjvtcFhU8cCGD4Pp2ZVY5hD
93979968178684sGOxtNMWXq0ManrXf                                SreQpDjF                                     00019lFVwiW         54108480SkbLleTEmax    lxPJkmxsqUPYIINnbqcnrk        PB907544969952t3SZBLFX0T5I000000000005PB20121210040072714553200005073     na87znqJZZnQvfBZ3suF0biIZ8LAUiNE
78314243681105h5idpBXWHLfeFxUAlmS3YPpZTWhefdAy2MSlLf8S         jSIThljjvYbbnunAtRueMFLnkoMGOeFUf            11058l              33473425vyzfzCMrWWUHcK migISwrcRlJpUxmw              PB331550327824IahQZGsh9bp4000000000007PB20190501160067491717090001903     XoHvSoQ68Ofpda0g5XBHvsJ9SU5XrplD
86883548513018wLVCJgOTfS7KyFwXfelJ2pQ8leHxLk5Wg4hScfhiY        rbCxvLWcrRGfBQLRFrPPFTGOCsJ                  16945EHojlF         52789860SXJNnPhuT      mw                            PB5507207336094c4MEeJ130m1000000000008PB20181002130087841671740681550     X9fuJKyDd57d6VBtSxQTFL0HUinwa0eo
97043541953241kxRLkvd3AOpas46O0lh413K7Vb7I23ExOA154Xv88AQK5lt  aETnguDzWVgzVtKnhHiYGmkOcEXpH                00306cEhfUNJLrTy    97033627UQ             ONTtlsqCqjwYfjggnCPWYdtel     PB987469042202R4SCUBFtuveI000000000010PB20130610060062449147550035342     yLkWmCJLwdDDsBGBMYwfgIiiZdm1aY1R
44182822424496hOyn9kfrdE5RD8qleLGhfm8ga3ixD3K4J                PRSyvNrMQ                                    00004ZHEuNjONuFHUCy 27277854huftQmXmJuyx   hyhtXe                        PB630570564325oqtKlLijNTCb000000000016PB20140101130025707696400000001     0zKmmdNxrWebHbhe3BYIpgt1uMNIPlup
61024080361986T2l6nQtKoRjZSgWaHrG1v                            wwQCxqMzthOrguPYGRVYUEmp                     00093badLPv         55404860hQDmxzaHGEu    KybWJrXeemOH                  PB3161661299089KLuvqCd4Nao000000000010PB20140225020083837193730000091     ZAbxhw2wTgbOx5CT6iuu84gKmOsmeOnP
58756679483418UzQWEH2k98x78KrZsOAAHv2WxytO                     cEHqUVvfMkmhAhAJa                            00356vq             27854349IZtP           sNI                           PB851202585932G8mzqNw7635u000000000007PB20131206100091989653100002010     0LhE1LFHENsckB0lEvo23M0TW2zYYVT7
87965908813720dMeQYE4iKL9sjbqqAZNNjYKYz                        kklBuxT                                      00007A              09550326IPyjZR         pFKhVOWHZaktrTMlQaDe          PB595610336700k0AhKW29dU5a000000000014PB20170220110041712255160129223     rXc97CmGMU4QbyGbj549u4Z7RiLJeZ1L
203373686328974wQXY8ZCbDRz1Apiq2NSnXL1jQ5n3dQW4WrTQgfHKv       cD                                           01623Ac             37852019AUhZrUPkDcDOf  AiSwTaulwLCzyp                PB1735328280749Wotrrni3ffj000000000007PB20131208010060174388590000856     EbdbDyOMRv7oGa8VUSwH16ObbA56ElOj
50396605781857nOpYGKHBIMXK2tYZuRPYfusfok667KJL16yC             xMIFBldetvJLfyUylm                           00821mqayclnuieg    99865302mboaBiRKUSuXtSDoSqlpTMipAiNIEByixCAYWz       PB0116211938104BxOau8S3kN8000000000002PB20131104020014595064800000255     F04C2BoJyDw9Mo4fQTYFIWAyhkZEMbLb
45871552052332LtgKY4VUOsQ239zjRhCXUKiuI41noWGRMgj5ms           I                                            47052tnvIgLQABaAGxY 36517118JYfjQpjXzQhIvcXJHwjJsZAEVwlvUtqdIGmlLnL      PB461693476979GvfJzYGjrBR4000000000004PB20121107100103974938790179436     qhzT5AGsNk4UNrKPawb3TwNLGeQX4S5s
79584249789276e1qJ65OX8zAIIaBeoi7FjDZb7isZf5mSLPxVUAY3         JjKDBqvsYzKugunOABGWO                        01096zKxVsPPMD      15845980dCdqBASnuUyrOu xZoodMThBrw                   PB674741236515w7zEyQhcjVd9000000000006PB20170420080068119739260000007     9ZMhnHHXvLEkMMmEjly67uTga6MpLaaj
0006297554870221n0D4s7WHDZHgJbmEbBh4Xkhh3sOqS                  tMrA                                         00006Ko             41127202OkPUsKAEbsqaK  OJVjt                         PB421497413138D3AQ8RotpxgK000000000008PB20140315150017159332550000075     31MoJwFhQX6sgQl07OMtVDPdfagyKx4Z
66387405738786MDPZOJr8xPDIJsprW                                yPQRjuSaySrYvDBbSSIFcZHmg                    00697IDBdwS         28326553WTssyInISyTde  YZrFLx                        PB813458191608s5S7EEQ8l9dH000000000008PB20131007060075987973040000979     6lbPQ0XhThGmSmjco9jVoUmoxhVtOinA
6732940042644042m6rqI1hlWWSdYReUcSTsWOi                        MGpKCtKVFfApCPEtPPxdrvbRlXXwhJehzgmREvSGVEVe 00039RE             64475570UFiFazKeGlTBoGVKfwYFaQThXW                   PB309604899019gNGB3YcQd3VF000000000012PB20161204150099666480540444053     wuygN2RHJQzoTQfMz6fNH91Gg5AwtRo8
19244624732361IK8pJuE2WqNzMx1f3kmc91NVK                        iPSER                                        07503SCnJXZ         03178880gEikaO         QSadNHKdCnnAumCK              PB6731123046842sHZfoMVSVyW000000000015PB20140606150109612837860009894     mJSVJI6XTaTgSdBKcfPgSADArTnDD363
71669079820827VjFV33LiqddHoFUdFU8PxeMnZS5SncxrqsCT4pMn5uuv     ygFAaHatWm                                   00872EkHKbO         54016595W              dz                            PB738616692607ilfCJL2lLZgm000000000008PB20160705040048309309860988188     YpdOPL9j9j9aS2K3JTnZXKTsowHEZECK
8436725618540761EBPk6zMUExaiSZSZ8nlHv87NdeNTCIKalofVA7mLW      uyoyYLIWmwfgQkSJndLiuOobExQeuMfVXoao         00038YFEofLMzFMsqRSq60180107uTAsxbUSB      lVrFIfLt                      PB778598032698NRicDzn5pTyo000000000008PB20130609060011478264480000626     oXPlupXxqrXkqk26sV46Nr0F9VZhQh2d
32528435178187omruP2MepzRW2xYsTtX1YL2IGAEUwRvmEW               GVdpOzMUuCqnDaDOGlcKxkUIuNPRvKPn             06517Gcbv           45005102FprOoPdYFjIEXEtKmCYFsrwtgQOyvbE              PB435575851563qezTNKjRJ1CW000000000007PB20200408040054365838110000546     TLBBz5zE4Va5m21MLrNBqs4QBASGkIFK
95247292457461GvahXuzwQrMwpKpYtcZye8zdmiZo                     PQuDKjIsHxlnOQZsOYJFbqM                      00035cMIaOEGYUFZ    74588788hWVh           AFZyxiJwzvIKwbLrJPAthDfV      PB715624504864BpvZYBKHWdKR000000000003PB20151103020108642131040000252     UXmaTj6oIEytSyCWSGSBIGS6zF4y3tyL
18547981123232yG3NrrCsIPiPaarjh92jfLyMhJNvc7I5m7tYL4cf6        FUPXoOS                                      08543KR             92169835cwuxh          UvmOFIyjmDlnLJOLoCe           PB449808384567kCrvaSdmYPoW000000000003PB20130608130019233413420007222     jVcPnr7268Xez0vREFOfzNgukgAxp74O
78695148309526gSNQg6zHqrs1IdzDMIh1                             LswqsChTLmHxv                                07640LCBprTo        54447380MMiqyFO        l                             PB978007228063WrTKaPTza04B000000000002PB20190910090055198179176661991     m5JidWuYyVFupB5uFfxanc1F6JRJvKhm
20800386827443jdbi8LeRENjb31eLdD9bpDNZvgBpsbG                  nBsBJJLDaeo                                  00008oGvnpanS       91124016gDNCMbVX       RqHCdgvzsVD                   PB5751347696779WxUAIJgI3Fl000000000003PB20111222010043298350630000721     AO2VHKa82CryUTrUHsx5dR2cX9NinAzd
72788292775416c4EIu2YDVV9AWjJtjEm1JpnjuvIJ8X                   yBTttbdjVxgkwLdUseIPVXbVm                    05010fyYl           35080589PZifhkGTZA     TgTeoOKOcMZqZG                PB561717562355RAY1ZikQxs4P000000000010PB20170709060101846262100009118     avYrw1NoFjC3IPpQlfQzZRRcdPJ0VFLc
26908007746339XPRJCE2EqEbTYCrKTC5XVIlyLeWueFfO                 pUmELNWHHmLwZzfvqOVTkBooMF                   34056CcL            23774521sXqNWxJhBCv    BYfRnqSsbLFjWSLMsCFkm         PB392934708238SBQzH0flotWx000000000015PB20191020090071293538030006250     AaVQg27gICKo27rpZE0VspiYQwF3Tqbh
19150392663127zxhv7uStuoCoB7BYuiyvrMBKdo6RAQRb0JPZNAiOeOrXs6   VQeREUafKnY                                  23281ks             25061179GYALUdZTEKT    wObVhqc                       PB132347887722397IsYJDPyak000000000005PB20200206020043836711860004581     ckyXymMyvEu52NPInDFHIPCKxJ2jmBge
00018186178384tXomFRr5ImqqyyTIXEshjUwgU                        HxhqaiAVqNReoCnzdUYCdO                       00517hVauPr         48415165XwccFDYgaNvlPHqoSCuIUEWhTpecLlcukJwPdv       PB654420399817Fqdn1hcLgApb000000000006PB20140516070016742969770000050     jjzwOPUaxrG3zFknelRmTJdsnipmp8Xo
20496103594050QbymJhHEl4z2S6NBao27mqDAAksVD4NYPrf6Apkg         vBVdogArsgPtkmPUmcJZMrXSfyyZJBnxwANxWw       00009bFNLjj         00534505y              UvYSk                         PB959030627728a1hFKWlyy8Gf000000000015PB20191117070093424109620038049     GJ9fpW4XsQRWM5HRiA4nvTcBRw9Qa4po
451740197517595T8YxbmRttOl6I68kkoU2rbPXy                       UPHkceWcotvwboOfneXEuV                       07533xwmCswwEPUnP   67444872FhqYApotWGtQ   fRrQTjcgpPfxPDetPHrietXxWVeub PB009889157116N3j2NMhbfmF5000000000009PB20170702070010871913570000001     lRbbsauhPMvMLcYT5CjQ0cikwV5bFxN1
68430289245735n1IbJrGa8PjvOlY7Gn                               SPumfVPhUMkCWYGgWHqAMjzdtrAilLlt             00202PzuHfwESYHjUU  67415460ydarQqruZEs    mLCLxPuqDvdNX                 PB9280547457107mEkQYEXamqC000000000012PB20120407100084408992130000086     gaQNNsLm6bpMbUs3thv9kDQo3aOpcXjx
000292172515006np7t1qlRs2VTDpwBT                               QlSyqhQIMwjZ                                 05112cseAxanqPtR    14304780mChLElDMyeUsYqadfECCGRAxiuXrEODA             PB236407475657Iu1IpD2wfBIo000000000014PB20151003010107509855360000294     yQWg2rmLOJZTEyCJauQk1wpHFf4adKO6
231780925096399lxLwU8YDlorOxmrlRjjsJO                          SGMTBiTBtGkZHQmmqkuxglrUJNhLHUM              00090wMarcEz        34769408bZBYYb         IzEPrT                        PB8548031048606DOiqOhvIGLx000000000002PB20180324110021557555740000073     cq1aTmdcNaM2nPvgFIDhcJk3eePGQZs9
33401169359810Xwuu88L0ni2Q1Y89Vl8mXdch49OaMt                   NauYQP                                       07204NgDUeMiGCr     16946444MJgEiaDIYAVBSR YBTVM                         PB878039419488IXk8IVJFQDh6000000000005PB20140321050036455228240000073     JUXIXYZ3684ogtUMMDSLaTuejyfOxogV
61911366686777KxbD1qMMyr9eKqJYvZgBGybET3nfJPh9AIKlS9G          lgaxhfeiiWgKKAkjrCcLSXNbzJnmiyeMMF           05732QflNxsIPiIK    59748012wrvoP          ilEmFtnrxZaHPaNQB             PB3323442531638eF73D9rxLN8000000000016PB20161221040088943626250008674     PJXhMXkIvzrj8lKfZvob6HUj3ZVr0shO
79636511059396hSlqCLlzuLQQUWQspG                               YKwEImI                                      00943Mh             70088043alEOGqg        NCNcdUmIvBc                   PB304046777771kTYDdXv6DWAU000000000006PB20120721060079567870540000008     dnJQDnHwFW6s0qkGX65DHCmRfzvQT4sB
76917672934872JlMD5E8O9MFTQvD1LpoaineANAdeVl0oNzAzSCy1aLc1ccr  mGfknIVFLTMjIY                               00044gBtaQDpSee     03678006BJViCDGMMjN    LVJ                           PB476606132788ABXqarxuzlyG000000000014PB20140521010017354645802271319     yp2kPfMZrblTXRAiSKPYTQOqZaoLDAvx
12497142092294heSL49GaMbNyPT8RwtHxu7BEdT8s44nZStxttNfj0sbBF    lKIOQjilCaQcrpmRymbX                         00133fTnmiVPVPse    93360550mXR            pOCqApHWRSNmUMtTrakf          PB238421779111WiiRUbLLfK3Q000000000003PB20150702160103070844610749129     pwf9A5hscvMKaVIQA2fEdlx2f4UHrptx
580570368131090JzX0tMzZCkIfvlFLGxQ1rsIkJKKGvJXX1m5JL           EqUqWgGbbDnEDoWPBiMWRVPMSuTCbubFtWYE         00845cbQF           41596584UkjOEUjMP      fOhG                          PB677069667524hQ9lgR37eXp6000000000007PB20130116140042570142110057081     QATDnZuzdWSD9k5kAzfrcT3AzZteQ1fb
00095101067806vfEbQs0l0Bh4g7HYb                                xUqc                                         00030cUUnmpIskpKQXZ 22563036h              oTolrwlunw                    PB907695848094bUEkw2qpKsH0000000000009PB20160901040072647690020000646     wf58ePBnw2qIYvCM53y4xec7CGAEs385
41815192657804Ios92XiZdP62YF9yV                                dTfmsPM                                      53265KeVxl          39507247VlLhKXmZefMYuz raimUjAJNAC                   PB275081968875dO4VLVtdP6x7000000000011PB20111104060079599073884058637     gERGntPc8ARtkDYIJarFB3f61XvtNIyO
00087517672010Pigb5Ti3iEiyJ4bkexbB7TTMm4Z820ojjD1fV5yM7DgPMuMl aJyTFaniXCLwTVyhfSrRFTThpEplOsecObYf         00613dAjffHPeoSyLasb53775466MFQEkImJo      WKBKPPEbY                     PB135462061902H0lFgjDpXqFO000000000015PB20120808010017792380590000003     e5SmdF5rjXaCQ9eDc1U99465AEXysq3b
00000526192909n09Oe63XqPReC1meb1G                              kCzqTccaLudAdqPhKMntkrgcJb                   07254MQX            39374786cwbVJ          RdPYWcqcmskwjUIJXwYath        PB416074697668wnkwpz6vijtS000000000013PB20131217110104866694420741769     IC0iqD0vkQsTEQgMV1TUkxRFWWVMHDeq
21141902285791FRVmSxtwUzxHwP                                   QwpldPQrecgnCeCOgDfKIsVfRjZcFedFWBcixzYdit   47405HdaB           30423570swap           RwJHojMFWuZwwqkSwAPnMPoGWVkcDhPB307556564412JaG78OPMRQ1s000000000015PB20150821140049902549690000553     VK64FaMjnhLQbAtu7e0oDNftsCYBJpp8
05923418305971bMkNmVisE02jrQZfYohKgAqAVUoU5is7vi9xw            vhrfzefMJJREHzRgo                            90447YutxXpn        85918181MauxIMQfGjyZFh EuopsrmgBlovevsDzzUdnNygv     PB894121854522ebBPmMeqzv9I000000000015PB20141205120085871461670783101     k0RYRDmSFBGT4ezdOU0QfcTjTYfW8v4s
49060937191907xSoNmVvd8sJGVWkEmwSQ                             iCjaTENWwZ                                   37182E              64618725rmSUOCFhOjIeJZUkgouzuV                       PB7238942909023hpkVSusscTg000000000002PB20120912070101624103270000123     QPi2A2Ns2pIj6x4O7CwLu3YAxWKc1vVB
85714862510099U0qD7UB42Bkpr49fhTUBjnLb198UJuxAm8duGa5Le        ViJxIEHGUQiU                                 20814MLuhgMpCZEpLw  66439398gZmZxtWQOEWtas UciWibog                      PB817439413433ULgVRYetmsa3000000000014PB20160422110093514745150587319     4KjrGOiAP8TEoCsDvgsa5MjwAYgGgkoK
60456773592952iQ8SU4YoSm54IPkNOSrsr7XSoRylmT6iSn               Ahngh                                        00065LEsUviHUZcbU   20242073HIJpXm         CgRvkvAsJPtnGOch              PB343729241316v4ldnKTjW3U4000000000014PB20180524030087381905560013064     bEjBMYRAKptH49IesmGQhF43OLOv3euM
55410424104329hFrhiugnhxUHp5                                   u                                            00005s              67830703QalFxgitSGID   HpEgdMdswdHoPOcCRDNzhbJHJGokuYPB704959422701Q0uY8s3yS5lL000000000016PB20110508050092358526270098936     WWo2yrtG45V4yaVOWE4dzpcP31DrqycD
00002338980859TotU8VTuC1JYKhQpRJ0Fxf8YnFLTiW6BHBAE68gaFJpVzc6  tKmpoITlppQfmjIRrTylhaqYpFiLHtm              00074iTYtQxvwXYQF   35182932QgmgosKKCDk    wOWWZmfnORPUIRwZ              PB9320554204166u4Ds66gslPM000000000012PB20130804130068677695846042936     GoeUMQTZEtJIRcvxzkNgHqSEkMaNUVhi
31753331093035vdYYy5QDm3t5MkQ1xbQvFPqg7OjpIOyD62AM             rwOwdnGRdcQWawIabvrodRPzEeXfZZHXZBGFWJaqnq   00005mQjEesCWqwiMlXh14715590eC             JAXZWYkj                      PB475507998978p1JV0U9sEdXs000000000012PB20121003070019827627800000003     LJUy3UwP2JpnxC1AdbNBPaLEEVMizJge
00084119840522PpwdsKsNBvkMrIGFfadqRaZpjSQEX73iY4yD0cLbOOfIx0   HekVLWSnKHNEHifmUDeQuDGSLBkz                 00003BTUWyanZHDdQFgZ80445547FRK            IgjLWVUZbYbSht                PB669543082719Pd6RdUGujhCa000000000003PB20191022040087922879590000004     GO7msY6VWgnwewxQwjPJHSc7KoRtFr4t
52835229855242qN4Dftfokp2HlSF2TzpVgRjdSi                       AXPINJRLkLAGc                                00006GyIYt          91569788k              tZScrNFxvDTJMHQosZl           PB822018664671EtO1QOZS7y7Z000000000012PB20161101020051278873110369648     s9Ohcyny49bdKp6aUMPjdOY5fRIIPvCm
32425009540089UwRB6Xe7TGFHFPRrXBwI72cLwuPj1A4XXGL9NXGOw        zFnGmQQZImc                                  00032ZWCZzgCgWPEJb  39045078xE             BiRwkXDI                      PB638339561757ADVQoH9Kio13000000000014PB20131016030083135035965786064     qgAUqswBvYo6iDL3DvHSDARfZNs0Ompu
00096615092395xxZogOhek6DiYS0u56BKz9n                          xZkuhWCIyZEjYkSEstzlLlUoqZSKydCxiVqt         00055xkGVxZL        00329903OpQvwJnzQAThUkMArALywXIDejg                  PB244601374175X5inMp0oiiO4000000000014PB20140416010013337787610024492     E3JpDyHFPRn2mtozANTGLvJ644f2ADIi
35702639929097WP5dbPxRaZm1jaYxyM1WkcX2ig8nzYlpOkCiBwzqYTs      aPJZSSHwWxdqGBgfRGxyMVZLetzsFpipdaPdbKSehhSqJ00004tDVySLCY       75325362AlSQEhwCRZdaOJ EVyzXOwWcETW                  PB114789389171ikQlwjnwt1tS000000000001PB20140515130015070581856743236     NFvcEh4wXG8CbypoJiqKnXF1zExFKNM3
33758204869621KbXFTtDcQkiSEdmF8CdHSAIpzGtY5BbnC9kGm            ToLVSTVwbOgIRQnF                             00027EqzihRSNFMNROU 85713186ILoDLxmviFUY   sCegIWEKDJuppq                PB462564177126embWs5rjjyB1000000000013PB20180223140044176512052366926     H5WvS2S2mQ9r8ZrUjSW8sVpTKG0DMxud
94303487297624t0lMD55hSAXgxfpwMhFJ3cnF                         thRjZEyCpjuOXVWGgxojTZoskqHnEwbhps           00004xf             91147689iqgYQeSwubfLVaZqlxG                          PB336860484811eNJyhMc4DV3i000000000001PB20151116020041334296210789056     zo4aIV3mqs2EOIYMpG3Toqk6DrfBn84n
00038030331282G0ALeLi4DAxJ94BUOc7SjWuiL                        hP                                           02971SR             37046672grJLDJl        LqMjaxxSHehFiWvfB             PB853175211947aTiEJcZkGAto000000000004PB20160612060064941040930091512     7xHBpde3scqsND7vPbY3TY09yYG3lvFa
46363042113715b2TthxNTcnlXe561PEx0hBk3ZyOl4weOq                bspgopkdn                                    06089GPPIWGHWW      72407987JtR            MlW                           PB069937473268EXCvp5fMp76R000000000001PB20160314050079531281200000072     SMAvG6Jamtcy4yoh6vASNq45Fqe1KHGS
03659942459673fMCxKT9M1RLjf0n2NJuj                             cRgyDbFleauzTiXpRUnxrepzGuoaIlWJbhOeAs       45811qfWnU          41663485zYVDnCMytB     oIQyfKdxMoNwVFbhswiQCcEzxxQgl PB498483749217284nJCuxbGBB000000000003PB20150604050011951941250064478     Wdl4NteSlv4TLjT8CuDZDPCbF4i6f3FY
261696964487135r92Ajq5QoHkpZM5QfnhZuc2jYpUYa9                  VebWmsuGTea                                  02264gzoASRiPi      82162694uCJ            gqlWDBg                       PB154602833881yKwvSsiVNFyE000000000009PB20120708040027549869300000007     8iADHJyEGcx48LiTkbPWwIfUO9D6aw4o
00097704963163hbP8SoPzeXwzO1LvCB7npv6p8P6FuocrmBMXuScLEW       koLdFNDDTHID                                 00955Cj             23969955cR             lPimxp                        PB678170691673H570RDGiOXyr000000000003PB20120514120023691179920000390     LvQ4DB7LJla6iyB5AcoZcenWqlh1Bmms
51068775943875AVeyvgf5nlJhft1clttRzDZKKvCyaWbQWHfyPxM9qg5a22SW cFLIqOWJgzJOD                                59531LAPRe          11927339viXqfkcyYuVp   lCArAqmsMDMXNVkcKgnZjf        PB860308843124VorXSr1pg00j000000000006PB20120107150097547159404546795     sFQSQ9Ev20BmkLjpcyzbnsDzhGmegbzV
03160941713730FkM4rfHAg0Okd4R6Y                                ccXUsQeMwEFOqllFUynUve                       00088EsPdncvdCBzNe  68561627SXilPXCTxFEV   nBOyAQpBIEomxGv               PB304557125862UKELGkSVZBVS000000000006PB20160607020029616431290380358     FLkR6BmmesKIMB6S9lJDXBl0vVfzm29l
00013643318375YdsN8nMtpwWWXPD03ioWa5rED3haU                    KpLdEaKKfkawUYSHTzPfTYVjEOaGuM               00016LfT            37805744YG             EUtgRMF                       PB213539161169bmA9mJVicLFA000000000008PB20150218080059557105060000552     MIJqZwP3SyJnol5y6BNa18H0AOe1Dwze
00046152745136CJlf9rDeP4DZGdCnY1zsgFXBmcUVn3ouBoTs0i           TyaamBpSmEBCdownOCWJhFfxFH                   00056HUZ            53785031wPSHrorAN      mut                           PB814701826671qZhPGEbvglPj000000000015PB20140724040064375151390009828     jfYl4HsZzut602ZE3hsZUTQEqL1alqNN
00011571066179BeMiDSVWmMMUXmvVi5d6WB                           ZCMPxsUjmBElRvIdBKcXxXuKxxKKCj               00712GJbk           16687010rnQSLfatXZo    cGcCTfqDxhfSEwYKgFj           PB025146210276CZhRYI4rGUch000000000002PB20111224120067396911851404514     cLHmgPtAzojp544ay50htHdislwV4yC2
71853929627848tPtVYBl0jfJ37p3K0ExBub9tT                        DzHraPOroPjtBdijfYwbJuOh                     78457Kzjg           44947117Y              yeMsCYZJITrGNZ                PB234853775945FseTB88FYwv6000000000016PB20150704050095384077100000297     DtXaqlFpTq0O9XDK64dCH9t7XB7gaOum
46995543130643EOROzZ3mOYaIvIZ9bmAjX                            dFUcc                                        00001ku             35730462SQuRbZovWP     TbMCajjrlZzmbuOniOlXPjgcEqQSI PB981098593538obeh1ehnkxzl000000000010PB20200816090029189542420000054     47KdwDp6C6Ar8P6VpkBZG7ge5sXYbebM
18804493511514JsxqYTMYcAttSOIGWV                               GXZJcU                                       05394FskSB          76834487tGdtFUTeSg     lJsNQTMfTgZzpPBWmnTJANJU      PB621755912654FTA5CvhzawSd000000000011PB20150204090101462589610000001     AGDg5S7GdJYcQceiAV7CLi88X9bwuS1I
71519897218752agdJzFqKPhnGMoXt7QL0nwUKJYmzeWjlY09IcQOc         dpCdvppcKVDaRyehxnYOsSO                      00000JPKemNbADJO    26201399bmwpzJsohIjhK  mvSiG                         PB882097185795m4krrG0Vxqci000000000004PB20130301160036237625000000094     7XLpV5ePblrBL5od1SMHzykZK6sZsAzn
89085845209447tgwS3D5AkRXrzVHGPBahDN                           kqBUTXeyKrbxhTeWBaSlmnVEYsdpTHZkMMaQF        00026A              79407025s              atNpfOuWkaZvj                 PB272574660341Ny3IyRltAe4k000000000005PB20130208100031730859880000094     GGdFcEBVw891SDnCvPruNZra3gWwxUAb
00035614339280EbUttsskrujfbPR                                  cLSAWYlF                                     00009zl             99293723RhykwXtYRyBDO  rAQRAGHIdmusmcWyYkdeHjVpEOUh  PB0324618311935xZD9m6Emr39000000000008PB20120312090020804516230020504     VsUpyEVWNQdqSkDuT4upo0UVCDuTVTSJ
99936490605190N6btnerbD9SQnSkYZoJaX840I7SkFPCaTEgrUBdc         nNrebHJOdIFZZSntNAIymxQSXVEwloZwHYmlegBoW    00049DdyztTCP       09997182tgXtpoRhr      nIagXSkPHJnpHntNKMxjBLRPbJ    PB223894529072QzhNVZbxLikC000000000012PB20130420020042267586770000004     QtbNUV0LHO8CObPxGf2sxrG1z5rATpGo
63948693048013asDQAZbNq4D98ZE3fXKAivYe                         iorTWEqkOWzzXzxsg                            64470flJmpucUmhP    34768707MMsLrCyU       DwBtapKuQMFRISAzmauZFzkTTpvHK PB041104104632HvfR6sgFZ2vL000000000008PB20131124010071531750740000344     IXE5BRDHvuPK7AMgUemRjmxxzLuLHt6W
000999311810953rMUeqe6K8UhHjkVwERmmdPT                         jxXnWSOTOsLtgpfkNRLyvYzWA                    00004ODyP           67354915t              KxTSjze                       PB646749684065PYd9GeV36LNv000000000013PB20130203070029294571850000411     LO4376agLZRUfngUdqT4ml2BftfZt3o5
74153509717838jGsh9E8Ob7QS4OPXGvx9R8B                          rsO                                          04304XFSPKOCPEF     49741363ykYuknESnfgoeO EzvPid                        PB154652341205jHmAKfkeE8pd000000000004PB20180202150052219960400003956     D0YoPE82rRL42ZVYIvdzVGl7hZNudBtm
17727667561543GMiNbR3tqXvOLZ8SSR29x72PmRAPaMn2XxdFAkwCFW       ZIeVEYIWBItXQPuEKpZjscbwHLzrCrwocoUo         00088uNEvejaZji     84065208nKBBrUT        djoGFSCJwwVazIuVHvHXyw        PB964674384630DvtW7VkuLigW000000000003PB20190719100020345964770000114     jAIahkpuPGAipkqdBVtUtJeWeMPNSWht
04795865368921ZzJWok8IoIquVS0GNUbJ0KOHgD2TAqcbU3zaIJ9eqF       GJsvFAqztEnDd                                59106GqSovFvPYmeTcpv41791999jZYxkE         qSKdVmjZd                     PB7008100925036ic5F82iTVUV000000000006PB20190801150019356931450056530     aJns0oq275wcwbv6Q4c3OJFMSXg5LjCj
52938916102864DjJ6Imfm7rKPVj8rddcicUOjk4                       vANeoRpLQmZYcOpjjbanBKWWZpIWfVyWvuhz         00008KRHhGrtKN      48909300p              eSrxdJFIpVQSEMvbwkJXIWHH      PB567001610065eDGiUJ4F6xEm000000000005PB20130309150086775476833262280     5BQ5RxIY7Z5czIIbiHEb3F0vAshnRqKb
46533829404910JyFzsMe8tw6Lkau9vpNPPR2JHbJ6XBCfp7QQ6            gf                                           00051bPYmpovX       87323301GBk            ZBTMDBkBsyWVpqmBFZkTOjiZKgO   PB506370147449gPFZz38dAnNi000000000003PB20181119130049238572510053877     1pIKGz1Zgf5sofCxtLVTO0GxqkZbXnIE
000938460233703LWYJFjH0mdqqsrezB4memitKLLBL5jwvD               QdYbFLxw                                     07486o              32235236hbZ            eWIfCHUSJLdwUKkW              PB829550537265wmV5HtsK8jgm000000000003PB20180602160101230281220000009     2BdLyJ1PGbRsWZSIP4aCZ6PETgH6GHzV
17455891054184Wq50YVXdKnK36F                                   DmIGlzAkWKGhEIgQvnHFnaFkwEEojfounBAnxEW      04680mNtCGuNduZ     48270560yhbiBPSBnxbm   LOYBnGNoSXCdn                 PB828165660063DvspZrzKsge1000000000010PB20130919110043444645400000272     sSfORZYhEDpfa2fGvAekxxtHGuiCUE61
00093079803221PMi3UK8MZXeIpA6AEOhoTU6rzhevHxDTvKzVq3yd         GsYK                                         00060IvBRhvRZbj     61625916GTrwTjhKJCwq   QNUGSUFqZPQemGlxtzkfOVywiGw   PB061932330958tfXqNyq1iJM3000000000002PB20120105090094271702270000093     WzGQAJNZ94fWCayfXTcsfewEtiN9Gz0X
57520857505510HUcqLHLMv7WcuumB2Ty5CbNp6qqCIx8P                 ZZtUIDAUSCghJwlNFgikiZFcMaMUfOvwTanOwfg      00497nttbZVQZUbx    26022948gzebJzSlo      yLqLqMfldHQnyzMcpXzcO         PB8853568421287yH0C6LGS5fv000000000002PB20201023030033408324170000131     iEDVoG7Y90QwzOrhFUhHKsB1BTjC7f8v
42651790714070k35Uj4FOPouem2qdWF78UTX8sxcnroPuM                zaHGDWOOHjnoTvOzvNYIvrBmNMZIdKJdUrZaCZXv     00005fKabhzbBAQXMw  03563474Kmom           eSr                           PB917631439964Dqa0RovSky5u000000000008PB20130510140102200498437768233     c3oqECY9M7ytu2FnxFrcTT1niPVZHyv0
24095047548662yI8bDoHq91iDrHoH92cWZFCazW9wf1FeVFp1sZJCmef5i    vONadOjodVhManGMdizl                         02568In             64179131huf            BIeZUDzyaFpzethVAhgH          PB317405427475bDHuJQWTEEE3000000000007PB20200801120049257643700025540     LYHEAhtkj454t6sKUYkyFKeSc2eD9CrH
05878200391920u1wgjgJ2Ipocr5mYZxKalj05X4aqV833704iq2GP50S6s    goYbTTLRJTglTyXjfZYSzFg                      01551WDrYeaWjuSyMhR 39728081pqHvCPYv       NkvgVTMdw                     PB410413130461KhoV2pBVGkzr000000000001PB20140318110085832045840000467     pOk4Kf2m1e19NEsQgGmLQvMP7TrjMoBb
00043250743259wFYxEUbdpbKaJK9trl9IKCm7Ssbe                     CRBQzLTFXBoInEmXJyJbaKwrUVWAQa               00007SsBuwOzdAnT    45065036VYwKcKgMJxPhp  PY                            PB372081888966usuwZo7jUcaX000000000001PB20130324020082410492600367740     O0JkDK9zcxRu3a5ZYwSuyOrgagNz3Knx
48317703634009yP58xwMEdmqrE4MpdDp9tr7ykH2GOROUY                YHlTKds                                      00039RXxDtoTGmfXZuB 58551909tCWjIjPCZOkEI  mLzpBtdq                      PB825669569713ZhSb0ibQ33DV000000000011PB20130209120097385377650000062     vMO19wm9DdNmS2YnkOheis1Kfg55heWX
59507948721910LgqosZPo4lveXJWRvvkjQ6d93YstWIZuwGU2342rrU       ukMxLvWYDlnWonyUTnsvPUHCYnSlpiM              79838e              53067717xWmymyUtZ      fSPnaFddnWzXzUevT             PB4589406827563MUDwcwODBOo000000000004PB20180612140071164198870810141     qdYTOCAdbsusAN2KF4EpA39nVxvURFke
38212426598613Mi0t2ziaDHPPefRt8SRkb8Pv5QD9dL9zcDZaMx8GupZbr    EtRlrsLmwc                                   00024qlyuGM         83035433RombeuZxLPqn   wsrEYYqpk                     PB675714064445ieOvKz7qbSSY000000000014PB20190704110070304777224166216     QNnmIvqiElRRZ4Jl2ztXn6UW8MKobmFs
974246435606632JLLHgHjA5a5zWy9rYNjOOxiAhfzZ                    QgFOehVjNKcluXpwDgWFJqrhSqWQ                 00557zxtojhwjbKZTb  40551747ALlXHI         BMMruwJOvQVCWaP               PB217732840327b6eOK6EaNKTc000000000006PB20111215120019260613176526202     xtGb4pMzAC782a8wPHoVGOdtpNycQvWw
64307860376953PWllfoVU5l6X21BLvimXz0o891R09Pm                  JTYBdImPYrKMmWWbFVjVjRZFFStTlzZdhtaUgZP      00006cnbcjjAEOOOTUh 98377768uPxWOniLFuI    NmmpKeDhZHDFfvJfNiG           PB782155901691FL6O9NVNtiwF000000000010PB20181121070021611084022248161     dJ2WPBbkTeYO3eZX1AosD37fgtRQpB6S
35695652817420V2WAPk1H5hg9aan                                  QcIYyEajSqibnuXzdyssvXCMMetsGKlcmsIFN        00005aEGFQrXhqQyRfIF15145824yNAftoYyrJ     ajsbWrJEZpM                   PB903265442159Yc55HpBAdpLb000000000006PB20111224030049067007450000692     1Ee8acPorKTSb79pxf3h6udakhQlzD8f
8218692815391736TuIIImqZCBY2y5DSWtwGdD2                        NhvotsBOuehSwjiuLpsvmbOfvENOTGWB             00001qzhnxbqbWZ     79989643lEP            ZllxzhcpflfijpUQOQUVamMvQApZG PB234993585188Yya4uOFRX7w1000000000015PB20150117150108349666810000009     BfcauynsuEvAvrpRnPPnSLQky9ErganF
00008561809043I7oYpvPTwCcjDR3K7NEULy3a5m7s7mY                  xSLzWQfkugNxsv                               00013Lik            83212523S              EWvOSNwoGAWmHYZmAAnJcZHZS     PB138143947854WjxWF8ycRcyg000000000013PB20130504030030998797250000031     b5OoGOi6y7ogXxPa1vCP2O83FyBpGsiD
784895631064103wbTvj4iQmdFvDEmNaGMOjHfxE9sYJ6qUsz5aFd          BCZLCXpMsS                                   00058xxWUkjBlOM     84801573pLSVNwcM       cxXZIoayOOdoLQMaBZzHTGDSYhI   PB500423551473sthVjWS7MQ16000000000007PB20140921060082772063820007496     oohBLNwv6C2QFa2fS6ncS3rcywnOxOn8
65248003309020BI6wWnqf749M7Wjxqej1Z7mddlYMOa19UoMlR1q1A76Ljw   qxokPgYLKztzaQxyijjxaGptJIJACjTfNZGux        06948HUNxvz         91705065V              VdnsiMZt                      PB536634321468Ev6iK8ppmxwZ000000000004PB20160107110069659054130007154     HaUoaZRBvc0uVy039Kztuu2lA9UYf6Uq
90379742628447uNplqzc8QTwmdN35IryGXFsBtSz6s                    sWytMJsnxAFLoLaUAhNgEA                       00090af             19856333uQlK           DuwyGEDWukfPuJkbYfrMyVZFtC    PB475824950617CklaI2YHoJAZ000000000001PB20130605070074170293520000001     ZlEDECz5kb7QktpQ7wtWckAC65lAvveY
686069410556020ZJQcjLA8JdZobGYZszjvCT2xfyECNUO1i7g3zOhdNvTWCOD MWUqFVFMicrMlmef                             00838Fld            02833211Nbpmri         PcvCzE                        PB320251766520fA0dDzq1iyf9000000000016PB20151005070014644206340000587     FImbQHs0tM6gp9BwDFQurcPyVsMj5lSP
04152460654200m91okZ33kTxZo5wEHOVv                             nSjgmS                                       00377ggKkhjHmdm     25824002NeH            fNYJBrfwqiZkRJpsMPFOqKvebdRzzRPB293017979788itIdy8SZzXi4000000000003PB20120606100057979881350000088     euPp2Dugz1mBdk713aKydxt0aeeckILc
98353250488463Z47XNUvHbZNO1zFCjU9ayp6FYUyfLjfKK53txckHZS1W     fWdLPtqWLmSbTLeLCHzyMAiFIpFuDKwHl            00577MwAyOWZuRCaIffX38533325CgpDTPfwHEcKEDTIMRiDSUUgPCVCSGlKJtfU         PB668168284311CKeOC5B5lY7X000000000016PB20141206160072402188140002535     LsRpnANagifiqY36FoNMzTFAxSk38ufh
17104649757167rPrs97umGF8tiyvqljnpWksZF1iVnoncx0ZiJnn14Q2n     IZK                                          00008KTMtdWerm      78222852ebx            xPBsXlcp                      PB924963921154tmU4BreA7XLu000000000016PB20180619160017854981320000036     SmWmgTp1d5aWHDLgqOhjDFpWsbXncYs4
0007717191440288w4bdwlycbqlIpV                                 FcHbLrjPkfjbuGBBhCXLCElkJvLJhUFHuXogcPCw     00007YPR            07279290AUFwAqGl       qeNaRSIqkIIxUjyOMXXHs         PB4010535377741l7IueBo9Wgd000000000001PB20151119140066452116800000002     0lzgeZkZTUuP1ffp7fLlQJoUefeDA72d
74265331227488aCkntDcCARQ05PHDYO                               A                                            00411DRG            10430594oLygAuWFmtuG   tMTRJpqUpzPKRqdtNacCGup       PB610876143311wMYgeqpWZgbC000000000011PB20170219020044422978200000080     6mN2wyc5PeAQplqWwBBHqJAkl7Oc0ZL3
00067279813615tR7ngKVKXNmsEwfbDCaQ65LCbaRshp                   axQLfhTQSzZCOIRwMqnjDTQZUFrzDSzABfU          05455BwjtU          82953233wYqaJTunEYVHYB eJGPDauJZayygmwXuRax          PB7636710055326T9sBPoJ74LP000000000006PB20130925010101847316840015259     IDpHIKoekP9FY1AoQ1QeCVemjEh794u1
45349237739302gaPXfxbLLye5hvTYsY                               QILEZzPfRjzoSjMQGwhoDJZMGFvffqdOzMGbFV       52174SzEoJNQp       22155781RMVDRnEfNwxt   ijqwVVnlfRQTILgazaRAddf       PB916177680070MzupuPRlofoA000000000016PB20140422010108696835650000013     BDCkskbcPnATkCmTVG1BkdTobdOzRfBF
352374836212375jZ8hTDJZVw4dBPygOJu5b5cnudR8N5L                 BgtfuecHJmrGWMQsrAQioIucSfp                  00627kIPWvlNfPcxiiSn97819061ObFnsrjp       pVqgoJnNRlG                   PB515490119257PP5CIJbjZNFG000000000009PB20180823120046452257580000028     TL1cMfrMlrKe1rG8Fuv3FHM78Hu6uH65
14229318716990SmUg5o1ZUz252J6zh9Lj23ScqVcxuOztQF25l7pXFqPqrnk  LbbzaGyUjRJJkbwFNnlAeLq                      41383RByRUOYxjXs    78986435UpvWlC         nlBzWXtDsXrvUDvhICihVAMtxviZJMPB886513698155PpczyjjCBAKn000000000001PB20180309040019122567290006295     2QFOZymQCQlTxcujwupjNy6cBkobMCHy
00080804849021HTGtQwLiAJjkKpkUhtv2UI6ixhXFwMlioq               SjebhHsmhBaVBdhgmHBCxReWQEFZzvuyAoyxnfathFz  77869TblzuGNdsDDel  30261993oLXflkJWrfpT   sSrkqRsWQdjiBljMTkrrVpana     PB9289910155943piDoe2kwsL8000000000007PB20200401090056128169570137067     xh4k3L3sXNNyCG5U3VBxH6uvAmIJn3VV
68651127763868REKUN1nGj18ZRBEaM3                               yONIkHENXR                                   00003SBObFTPxzdjaIga02843398kwfGZ          KeKPzPYvn                     PB9260739760792lJGntlGtoZB000000000007PB20190106110041748259810000006     reLbGalzJpXuaNJWzca3WpQ51kD7b04T
00001726304957Wiyfbe8BfYK68Bkumu                               QNIpTtCWeswgqYbEkA                           00528KqaHpXlkexKiV  99089903cGymF          NQyACVrmAWbjVuCfeJeXm         PB395459380498Llx05IxX1GMS000000000016PB20201111090036349554077613627     izyjC43gIA8235P2K3rwC8tApolYUqau
00081700245520BbYIqI4vOlcwMfglHsGWFLOHoC5msZK5BxWk             qIdiiXcokBlQnoXpwAgKnmmmodGfKnK              00077PxV            79365099ioyiq          SGNZXENpmLCFjVFjvslwYOm       PB334039818697kLaWWlbujvmr000000000007PB20200420070077854654290000077     jRoPoJSHxKap3VlesxQZUsTNlyxt3SM4
65807779879808MiITPXKX0nPOqX52peOYpdcP7bS738                   OduGanUkheuWGBDjnpCiTdVsJufZVdXabaVgdTKXXz   46327SGIoLjBYDPasZXg07251962CMpwCRjwhoEnu  TfUrJkiOULvghpVifexjLpNccxO   PB3911845942532ysG915hSr9P000000000016PB20130901010039382155050000070     RcmajVmTwToaDliFSAN7CQCyghvcwmEF
98600805697341XreIx8cfhFwRxevuRDtBoWcT                         ADvkTkLKpd                                   00045rX             25177111Kp             bsjnuERXRFjVXC                PB562639142657xYCQBUPRdjD3000000000006PB20181023070027235470410000349     WGI18fFK6Gwv67VoQZYZCS2zji0mtIxX
2445344911604019heQhsO4ecmZCIjkFM9hZCJmKa3QwmgI8otSu2wjY       bXrosOEStITjLAXxoSLRHyFLvdBxArqHc            00540loto           10501512HryyUCmUHoO    alfznGEOdhiuh                 PB5849204600571cPTDUFEiYSp000000000011PB20140105100075565297290002046     JTrBGcgtB42OhxzEPjm7rhcWlIyqxk6b
50579978587978FWMvLLq2gHq8Zyn6i463tto043CvCnRuAL2Tm5U5PPfTK4n  QXtGijaAUOlnRGJTUxVKXNTOjTsnIERotJzaTSbes    00046rmEzWOotRR     73702754YFvUjUpOEfm    gzo                           PB400476156416GeWe4teR1Kks000000000004PB20180401140101366993880000581     oP6as2Fq8YByL2eXIBDh0r7J3r2sHZMD
56297685114067jOKZmFViRHqPI3RYr5Fsal6FvWQ4                     OqbStXBbmuqiOySsSXNdkeqxEhTLOqkPlEPdewKoiTda 00872bsgLbQqgvtHKYB 09148279piPukHsb       GinavsxdTMzJwlEWLv            PB910714868591ggkQ4xoVnLYK000000000011PB20160705130071192297930001540     SX11NuDCpvaIal4LK67WhGjP7CbDmHVI
23494872391913uauY9J67WGFjSSXfNuTdAlKAw83r7ByeUQ321XpOoQpcYRb  ifUNXhHBBDSiIqhHvKo                          00077WrjBxfK        04578345lwUnzA         ECetNVBfUEvurVQcn             PB1492974152687xN79lalYcFn000000000012PB20201119070040383911510006985     w2C9EMpg21cb2nlzJu8m1ZJ8TDgKQtkU
66892095317492V9UTIgcbf7pBXwrgJoIzsd1YakFRNG1t                 iqhrQuvkytWIi                                00003D              37541415NPFbGglm       dzWxYfnnGNAp                  PB368479024132CAUmKv6CZFfj000000000012PB20111020070080033892830660127     eZaOwO0BY2nCHedKNQaPQGhLN5mstVSl
00025902461707B7415YFbcU6pFYYuYC1NUMY9ULU                      zAXrKirHHiuszHrpRpzvDNP                      09593d              33976799SoRkzKn        ggWjtJACK                     PB114361864269ZaKu9cCHHB1X000000000011PB20140212060012959347830451471     fCjGP6P4KijawdJ4SoUcr5licWzcJQge
37752236691162PNzZ8vFAVhAnKe                                   NMlyiwDnnZejGsbqTDMSEUNtCKAbDxdAKLyi         00004DCITVyulsg     08697934Ae             pLgyW                         PB215330436712zUVyJ3eNWcEZ000000000002PB20160306040067643824390080490     3zjmcRrMvDsDb6wrrvqTSEBSjkb4vDgW
00076280403653HvhszJs2ltkMMVClR                                ImpTcDZxnMbyhqgiHp                           00124rwfotVu        19316850pjdn           Q                             PB122174341432ipcc4O0oXrQR000000000013PB20170707120015053891850369758     CFEmED9n248WwpqN8KSocEF82YEHvQhy
07193213063551tbZTAtdQC9KigUt7huRf                             XaAeReoGoYjKZInrbHiiiJwzHrxRydUuAX           00078cwjpnqC        49920685sCtivvNgFy     UP                            PB421515930524mnWqyNLKX9Jx000000000012PB20161009010084798345813468266     0eNjJ4g4mV208yKqBUyBykHEzKWqyb5U
00029575621549ecBI5XJusnXjFjRDLjxBMfLY7p7zAe4Ru46fH            AnrSoeTuFJtAMJSBBkClAHgeJJaUFUXYRCXVrE       00008tKobzmPED      89411227GFlnAWmIpHaDyTeQGrKsRXiaWGqTODwqsPFpnvXeTagjnPB243949179418HFNBSV8SbvPe000000000001PB20130223050084634244290547947     OXAqLkBx4nkDrzGmNGQr7zDCaaOiOVqW
00075045723570rVveMMQvEer72YEe8soyUq2I4EB37fjmFW47y7uJdiVld    q                                            05717BvOvbisWUK     47615041lqisLY         gTZUIqxWbSPzFT                PB327335699626FnG1S1p29TNf000000000007PB20150203050070544135260000007     2peJuoYEBk9I0SYEBz0JWO0RvJDr9eAd
94472274887180AUeH83cO10OuEiw0Yy6xULHlCBRtcyr8SSDX             GibuyzhM                                     01456e              86319828RdVHmtEdDtWTMpyFRnZxstWfaaISBMijFsZvdipuoxV  PB149131846871XRgBmWDUGWNZ000000000010PB20120809130033892367050031705     CaByhQmthugpad6ciIQbXIo7641MPyRF
25178950579539BcKmLCwRnqtrGmcnDjLNxjZN9dSdNnjpTgTOc            wgxQDiHGDRQMypUkGouvhVEdfvwVTAecgTXkECdCufz  00015dA             83010625ZamdeoH        q                             PB232200349668YPxnFEVGvyaz000000000006PB20160104030079688536450000335     S0pV5OC84i4l6agjG2STL1hdzBMn4SPL
27935492239468W4wYCSxjBWM7VbIl                                 VSAOWDWpTFq                                  00006jkjFFwIcxgJcTRZ56867374kCjBhg         EvVhrUUIn                     PB469112078720gN6lMhcYcmfL000000000014PB20150414070077480340480000000     cdU4jLikQKz3FMGVQFVTf6qxmUSPsVeg
63703259872302NYR9IvW4irRVoQyALkZDsjCsP6sXlj2                  dTzdNRZvEnmOVQstOSKDYYCDwhrMzA               01752ASbRr          78283773v              UVmQQjMXwjbGXpHewpLGFtGOHcHO  PB8089764120047yw6660x7E9o000000000007PB20171103020010556409770000791     y6btVBO4tzQH1OHDWvx70dZaQst5iyhz
00080766485307cPhQ5Jut8pELpFQhd6GczfnO0amAgkd                  AiODXTxTDPVZWIMbScqziubytglDDKPjexCk         00006iopRLxResWGzcFD62145348uvQOUsipY      Frmrl                         PB576274963838Ti4wioe5bFyw000000000014PB20160820080103414480160000002     Y61NEeKHrXUbbgq5l07TmZofLd13Nbro
76781845371377YsZnUjrOHuslZhME6ceXhId4HUj6mejQpE8Gu9lUtBpI2b   zshBz                                        00002XGAt           32534838adycAnTHrIq    FvvPhxAseCbH                  PB56521577549005Qu9g3xvRQI000000000014PB20190506110058808834212887980     WA9HfQQPKTbzLtmEjR2UEVuLUXaQSP4D
000267016424209W5a27vZlMYMvF6lmLTArVMitEenFgYlj                GwIojaRrnxSvSzfEj                            86280ZjgKK          76203842RYnvBZZSrYE    TsRNJTdrRTbSombiEzPl          PB265642445001Zu0RlcqE7vXo000000000010PB20180819080106698588280000003     knIqoonoxKGd6AoFFWr783aOgCepBoN8
33761080673810zIWKvVI57DWmBWfT3NGdN8r7IIuICgUzS7Kf0Bek3I0imaT0 esuPNMJWkZhKcg                               00006TB             91880549WTC            FAofcNCOqvs                   PB402068256747y6q8I3zjNdin000000000007PB20120708070044092658820000314     iG0S0vu0y6KKsVhdRFymEfBV0vF14PXr
00005450529716dbpg0BqHX5DJhzHxTa                               rwDLELimnheibdqwQnXbTipgyqFRMjCsMhzAwuVhnWr  00861nZJnJuHpcVMHaM 03977160uEeCg          yVHxiBEShnNyDomkUfnVOPJ       PB523634762591ddUN6IPq6Xyn000000000004PB20110913130053269512170811777     zeI85aBnyqteCcY9mmad03FeUumqzUXE
05633547389681M5PKS6qf0FYG1xjGTZU3fKEdtLwg6m0ZjaLX3pego9I      lylPdusBfLHnV                                01251TexyjocBLXyhx  25847995GZ             a                             PB318741777697yXoE66nPcpvZ000000000012PB20131218080032445140120000002     kcHAAbuPNdcVm05ku3XYfB2HvQBvWYyR
66252674574449foOiYzCB69A1Bv1plDswlte7tTIyp01x                 zLmrnpVCgtjwqAPxtWXH                         00007PLWstoFeV      34811173urYecZyY       LPYPShSipvFvSHnHqClxX         PB9067514267460ddmcDD0GAjy000000000011PB20150419090040006781200000085     3VmkhF6dVakgkep5U68pfDGR4WrbNNgD
00097022103054g2kuJXhuJ4GSuJOo2Cu                              aZVAjThtFJAuIQpATMYqqEHmIlrMADAyxhpJOKSCGC   00937foUfVvUEEnEXc  61777108xcMasuHhQ      ixaCXbGggQmqrSdyd             PB561105321326XhLcunMeibaR000000000010PB20190925080025586347330000059     kuFzhTPkS9Je7lO7YKO1SkljOkLumz03
26757198605056SmG0xBUSs5xDwgF6zyE0PiyiRSOJhHBMg2XnKDx658Fw     NKWzkcFftBhSsXFdKIMbfYCjfJANqGaDyChAweuBsZz  00033gQpD           21396911WKlndR         nEJxFFptH                     PB345046965114r0xTUlIHLzrs000000000008PB20150110070045143438450777085     4Aa0Ve8cHMzHl5iCpNiW58ofxBuBQ91y
56133895469659XFqh1STGb5WwgRrXctmIXAEmEdBmTEACW0B              iBfYd                                        00003Gkmvf          96577206MLuy           EGvZkPqJoNw                   PB985424485507M2WExTYuHnTv000000000007PB20110101030096875042150000069     pxAZJawiWRXKSQIoJjc1Q53fI06EdSLT
62823720300256gbiH3vr8CMyu5n8X3QEOC3bP7JVx10qhfef40m8Wa3GoDvYu dHajxRPhujfwoHOBLWkffghPoZUxQMzdKiLMjpBzVfIS 00744mjYvzJKGQ      35230560WjzErbvD       aoCbPJJg                      PB866596404632PiEWKmuq8UwL000000000002PB20200804080060040832340000039     LdhtoRyIv95VjNEBUT53H1gNeVkvH8Ht
96861411160008Yrr0jK2BFa7FKEIdp37c18Uw9XTronb0ktB3jO           yXlcEbYcOQYaWrlpNWVVwLBhRl                   06106spEFNfOkYxHsVd 23369688EQjgdUcfbWRc   aNfXlzgTLjBwKp                PB397604289540250AhPx71gcV000000000007PB20110701120074326229610006020     ho4l71a7xr5hCZhzsJXLsCxU85RAcFoN
83293081069800NgzxdtWACeo49NxOLHZNNhdb6Vl66aNe                 lEswNMqczvZwgCojNQwsaeDbhfo                  00006wbRbvOObUMQIzvW63193150tvjvJmZJAGJ    vQiLrfMhfsDziYAGUrepkleppaVhk PB661337200578qTO2ZX2AeWAs000000000002PB20130216160015317118440039757     oypHZMyDMGEmEhPglvKhS9DsmBspnmzz
57430999701183XF9lrWsStJ4dYsi9QUXx7skt2lEWb                    cJkExqyHPiPQCxTSBZOqmcyDgViVnBMBEbQHBxjniFBs 07784Wz             28305936KRJxKVDzXNoWQ  cTEPo                         PB20811128189665W8lPTt80UU000000000003PB20180114160022286927900000094     KRJj7Uy81oi91A550OiI9KCLdA4um5a5
06752754954773Yx613qISIWqTgIfCbhG                              wyzFswELnWfkaGbFEOsJFsWjmzpJMSLT             46817OjNelIENrD     89904861aj             kRshZywGaIebFKwsLEi           PB4012093895754WyC0fmRTln5000000000008PB20160320030039116507400000051     wdn160mpdOF09qwDOgt1GHJA7uC5GuL5
19294584755222EtBZkhjHH1sydGj8iYhZrun8065XGcPOHAfQCM           RgaygCSKmXGAejgVuEJXQRshMeNS                 00537ArDVLdir       25948033vnFjqqnvoJDDY  csdtvuHycJWMaslHxksbJ         PB499839152135wlc0mEwxLp1T000000000008PB20151002080084198077270022353     OMEvKDBR2dEGWzXQmCS5wCOEyVqji0LS
294839444575130bi5KPgOe09o0y                                   UYKACM                                       00401RMhrqjtujFpKPJf30213297LnJvIBq        Bgph                          PB865528923583i86NmeBSVaNq000000000015PB20150220140071433088970367100     gGWCt4FR0wKszrVImTomkkmdxp0SlBEh
45035854287416ky0z1kPuvpbqdm0HdBfHOfWHd948Ya7hXz0QXlgttewE     OTGCUfwuXHajujcYrOGSMJvVR                    02216GXPfIDzBtuJMw  30542478nYQrJfLGUCLPHYhBguemhDYSuleICAHNP            PB103770874256kqaEIkJI6GFy000000000013PB20180613010019261023850000116     HcIMelmtyp6vZxk2KX8rC9PENdRrw6nv
18751116792040FXrCeO4rzKtXOKjU6Wmpf7                           YCav                                         00003kGHkb          04538269AWhEJHLKYCiIXQFSRZmtNAoHMuoHOeR              PB630883914259wCcznYt6G1fl000000000002PB20190224100055758366780000755     fccdN8scXphaneLuQsJVpLqBnjZyE5gT
01790448321420OKwez9sp73iMczAyCX4Duw0serEFFq9MwS70PAS          iRTJJzfEDzxtxYSFFEwDwVqgEJgV                 32604GAtF           12563885JNINyDaq       vQahWXEV                      PB555691909596k79jLF7NrUpm000000000004PB20160108120019444776140000003     OOGqXL8LQ4MZWHStKAwKx3QHvlWl18JU
921468178851097yoT5AGLIejTXRWFpNcGQuPxljYFHUinIysjh5           k                                            31796yYkiduNpyyejvU 02373085a              iMWEIaVqupIk                  PB871534590307IgeR2pIDuaA7000000000008PB20111221010049141600980000007     rheZgaJl5vz4JNzHOSHorIe8BKMVA8IM
28737788771562K9D12T6bfAliDC                                   ZSlzHWYiXOoSdqkXPKqGhqWLJswsJwpSUZmeyleI     06150HPBVqJWSBvG    25626166UeLAQc         DbSNOTkGvvXjmZGxA             PB5623983428279zFDC3it8z7a000000000011PB20110510150057642953070000687     GH6SFBZ96jMUi1COkf62B2clWdOSAqMi
00085593314926aEsfm0sPtTkUg1El                                 SodJqp                                       86755eRlpfweNgBTEqn 50346015a              gyzMzKokLSTJKOHy              PB263255038704ZD9DTur9s7Nw000000000003PB20151109140022929965748774335     epYlONRMII8EDKWe9VYPtf93DStZBNJN
000150866177402hxj4Cy2cYRbkq04EF1ORXUU8VmAVKunwmydX91nqVstuS4  OCQFJdparQslqWHyOhkojrk                      00007zW             43591168qobtUpb        nXdtMZWKLhSeNMMe              PB520663699367Rw3kG1FNGwAh000000000011PB20150123050012152492410000875     ZQVP6DcWEunrtcrE9P5ujEaLNs3RP5jl
33011626468561QJMPhSxiqzlout9Ik                                HecXziLpKyeLMQsaRpWjTnah                     78447Y              44918138iWadcCpsnCAoCbFuJHzsmqNGQcMEuWNS             PB851639562773YnnF8scVzclD000000000008PB20170222140065327326430000863     01AM8Si9b6omrKhqMwY8dIEWVKzMmN7N
93992230760046W0zX6ibBzduEK7dp9kFFSGSyFlfam0OAXmrYn            HRzbLUWuJzWqhyTtDGoJPPQDxCInjW               04443LZJesjap       64944689brw            BSKoWIIbbPmlxMJxJUdGGnlsjtuTZ PB733558171329ahQ0UtVVLX9Y000000000004PB20121212110078764019830000982     iIaoHU0WBErqiHt95rPyMmaSBk2VUs1w
059108169711809CWKA7bflZVqelFv4kYw0wqabYZzi0Zkq2vgQNrhf        vx                                           00020lzgMn          02269643KPStxPjIgPcSPG FZvqfBwzKP                    PB256074824922xTGPTSex7QWj000000000007PB20161101030033348575370063669     hsILaOHtO9DnH6atGsxUEiNv97uTbMKi
50332183950208LLrS6ipwqwP3Mr4g3GMaA                            dt                                           00054mAmJMBdytPoeeI 81162693WsElFZNh       aX                            PB293204343746fwVPucdHfwfX000000000011PB20190902010096995976750099312     idcEANNpVuoIb7w45OzqACGhKyTesIQV
86600902936368UISwPcfMSBlIqaNqJjrP6ff5KS2lSVAtuhtBVX           eOTpgEGj                                     06117ymdezprzQmrliQ 25836811ztbFVTpBsNdCjU rZWCdUfBIMo                   PB581644667011itT8HmwDglhW000000000005PB20150301050048905612460056015     KlKzu6C9NHCrSBtao0173aaFs8QUVrKH
61424752198187ZeO5ZseYBMyLvnHCdIFTDSQbNC891mU                  RFmhArxMrWZmoYvImmuDzIhiUXpKY                00038nnjUYdWQdCzgEk 29331076Atb            UDtNYMblFQpHsZnPDsvCSCpGR     PB584856933482pyhdO01raDO6000000000007PB20150208150097708837420000683     Hoqjj0Yz7ecCHuErRKH4HFjXYJ4cpf6q
18899532970886cnnwroBV0O3FipHYyd5CLnyzC0FgkbfGa201hSWL8zmoa    RDcMPRsLcgszZXYbuNsOsKsFHKK                  00004lmLFE          69702083WHQC           sp                            PB562835281778KJuuS6rz4T6b000000000004PB20150208060095286153260000075     4N2OifXAK76KpI3n0LAw5eEeitqOilNt
72383473110142Vx1ig2ayId8Nly0DvbtTuJYx                         aiWBIgjA                                     00029VBUQGFJ        20147115pcDHWxGNSXVhDv FPlNsmYSEbjqEkUZnxQdqeX       PB9434430223168rEJqNb9SeAF000000000005PB20131101140104206855885904517     TrrAcneCJmZkZO754ytj4R3hv1QCAr5l
959488720905906Upzs6ilytO4tL9RkoqJOBCw9KmfSUWdoFe9zbH2gcGFW    IhQZWwSUTXvwhFzaTlHXWsmtEQEJ                 87354KMO            24840851RJr            gWJRYqUhM                     PB034479098511Zw5uN7YBAPSC000000000004PB20130503040034950317800000089     58NL41lXk66mnyEhEXjfzl9odshsao6o
07657562251073w9MFmWSsYTaOZ8ZxTQBt4NL1fb0                      cWhrikvIKBmyvRZWHvZbLujlUOqbvGtKpWRKeo       07952YFr            47214492hWogjZMkFuqY   hkKsakCHgMCEEFAmbBWNqwK       PB846894335737qQMdsbfHeW1r000000000005PB20121023150080997406500037167     WGmeL38b8zImls3bgywbXIOpASqUgPKb
67559649830579ygZ4tsD4jdSmLkMkbAJlMBe8mTlhYtVHxZdPK4HFSp4dJ    NJOWcXETJEMrqRgYLvqCEelyBreXbLy              00036GJoxHcuQ       09286809lzlmKdiIUa     QdmvGnZzEoofKe                PB2182561627910LfcD6E7HNA4000000000011PB20110110090094051605540001921     dn5Rhxbgr3TWAQEnamW7rg3xP1wtxLLH
376889423173120tRdC7SEZ5sJgPFgCdxWRXQGN222k1trlawqOxxEM9ona9   PMttzAoatUrMhNnOGdNvKHvSbqFOHJC              03492yGrVkf         48164081kTYBfJwNuy     fGQyTxWfIrfEuoEiFDGdk         PB096542008374o5y617qKkz4b000000000007PB20181121120031461527088507471     mXYeGoxLlx89nO624omeaaUVA9QprqvK
14877114307607g6H11Kc9Ccrjmbyz4aKHaLmN5ftOT9Jm0WNZSzNC5        jmzYitoIDJUbeWOpKyjVdaSyvluasqUmEpm          00703VjbiEeBNiI     54156739aylU           yjzEoYHRAiaeuUtIwrLS          PB038656441948PHD7Rs0Z45D3000000000008PB20110909110086666041450000007     QJPNIrYSqLZlYsVK5H2pi2nCeE7pEKpt
69843070592790T7u1z5lJfiyCbM9QN                                GzCKmTwtyjkdchNtYhdIvZHCqdTmgwktfsX          05984tKBJEAFw       08634427et             SbzQhAfYpGnuWqfTrCQygTfioJyB  PB8193704541323ZH4FI5E4rTn000000000004PB20150220120049611971793196201     NdJzbiIvp4jbnkXi1MsFoJOcBo5YeIGx
69875001939202rh5rBeXu0z3cEh0NTnqaQWG4                         kEMMYBRXbTUZ                                 00975VkCpi          77610369pxEBhDrzMdvu   wFOVPeAyNaZdSRUojRSSLGaOzI    PB731320526616eOUxj9fBhFZL000000000014PB20150902110086448041980453989     L1WyAOntADv9Nqlhy6r4hlcXQyYG1beX
10684952359590SbvWrXxQoU7jtjZt6iLgNjIsqJ7DhSOhr4ZiWtejqqqs     OIBjpbil                                     07539VnwjwLFCc      22387340qrxckdoZPxrCXQdYrjqaMFIEUpyJTzPGvxXNhuKDr    PB148124552014QUuGdNWi6gPw000000000006PB20170408030010738123410000093     PoBDHwiUcF0noPrNylAyFJve4vZLO6Wg
65349325799721R0QfAcUzZqBdB1ArG0mpxtSOYIN0C0wZ0bHnOhlS8MHbmM   EwQdYKQcEbebbYpZLFJrmvlEjiQjXDjEOtQXHguL     00800nF             81860491EsNKeLsUEBvzWZ sUvxYgeCy                     PB289477758079rNqNNO3inn87000000000005PB20121101140064433824950071113     e1Isv7fL9zdh3MkPFpM7MOF6dYuyIdt2
60253573472166OIDet6UMVkIfabtLPu                               yhJKL                                        58375WKdAt          19582441NTthaYojpQmaGtnxJDT                          PB970128013087gWrS1L9bak2Q000000000005PB20130110140027464735150000503     4ZckGeYGTDltF2JKijPOIAMWciCcTh2S
20620946046230BzsUtuj4m1HJMc83uIvMlBf1                         XAJXwBTLPeDIBlML                             00005psb            48476054YDCTdVlk       PhwMtcUVG                     PB375432659587aAlYeF8LYYkz000000000006PB20130524070078275245970000008     UPfNLronq0YhUBQMQdFdnpLWzTsu4HKc
38499261627300bI1N395zEw9iZzxK4roR7aASZTuopmwTTCMQx4oYxDNe     yZqlFFXubUvdDS                               00993imuupSCnIZc    73692040VL             jQeBblKlfgY                   PB2015373254325ToOvWvTakNg000000000003PB20160506010029242343830006277     tG4fGgFBfPzexe6aysJtePhJLAP5F4Do
79206978853647EDkoM9KIgpenmaczXYIrTnGohT                       eMFSBMEifFbMWQsTiZmMOdeKSpFBzrgozoOS         51691HHLqv          81461990IYjCScHIpzYjzBbEoiiXkbbgefbWBmkKZeoCvS       PB986132296087wbG55f2qKQAI000000000011PB20120824070094439428620000004     yrLPkpMBVSDPyEfcSjwF2Nrr5mZQIRZM
73652799708649GE5fzJfcQMjZ1P33tvTwsHqDszVhLc                   oddbQWWPXJHvHunsVdQfNJcszrvJesXfgzdDE        09689Bz             09253924pZHKlzwOWBhsPy dFIoUCPvHGy                   PB367908282963qfUTDIIEiiKG000000000006PB20200105070095352703540000549     oCQYI1xGedxrwY4eHQbgZwp87kdBBnIp
69940612546473JeBNcABVkF0AvHqqwOi70uYraVVagvX6UXknlbVaw07XY    ZdRUFmmlWxvSFlcfchz                          05308RYkfyTqj       56622174fDe            icqqZcaNsGyCdNLPrPisRu        PB479348822847poNVctc6U3L6000000000015PB20121206040017902370370054869     DE3ciDEKiGyCZvSN6ZyIUYJnAYRA93Rk
25658199096933LhgMGPZrwu9kh6d8gbHIm4UuEF                       kRoCSJwisGDpIymtVZMxziFAxFkVgAthnSJCOrdb     03868v              78544071ouHEEZ         WydiBzd                       PB5697358334050unRtJXi1LN2000000000013PB20140622010044689104970000006     A8J32FGidXWB10khHhi9znU2eY86WsKx
27121042530608eSQ3cTOJm6RYt76k                                 AUmeLlgRdIQAcQrLjQkIHdPZSHLTYnI              04399ECv            97542156Sn             zZsjsbtPDjfJaIcGGGLNQcaxfmQyX PB6945873069502ybIL70WfcVp000000000001PB20200218140105903333790000003     TyYmG6BvVPhBgXqJImEToBl2reh4hLmq
63915796704600sUTbzwLMiAKwMbUcfHQDKdY9a2                       ryhSfeUbrnPusDYFtoPbtFcaMse                  00001acI            40597693epYMwbHBxBPS   SlYXQBIFeuteMw                PB692179016838liAQoBhglh2q000000000014PB20150916050053484535570049033     nLlU3iDbniVGSO5wRPaicOgLwhgAv4P1
61173176881667eODNoEyByHsClsD1IrCk6SSoFNiJIhYHJLwqOOztCdOC     wEWFliUYzQRjfDPlAWzEmQvhIlN                  00003R              19895046zk             taEFsaZXKKWeGUsxaGRo          PB563444804818siz2rMYErp1G000000000002PB20141012090042510500170000003     xff5nzXcZ4QCegYMPL3Nfr4JoLVQMngI
86982232028118UKjofaDBfNHQBob2W                                UfgnRMOYBWTHntFoejFSuHaeGxaXcDhGFZsRWyeVpwq  00392LxPdYTUzG      16349766bf             jYGPiHLShAgUUZWDZIOCaLjl      PB723331049515bsjRbVmIuiHM000000000001PB20200501080104031744270035494     3BLDSIsKG5sv1OLWdk5UZomYW1qJLe19
66762872948476JUwEiL3PGvbFR0X6Nj                               LCOYeNJ                                      00379rjhFZEOc       13351430abPjAWSDfEx    nmnxnrHwPw                    PB650447140183lUQItvL7CTto000000000001PB20191017120061694781000023787     nz1gZ72gFtdRnGO7ppjas7eB5h5OsE8L
34853322694865hW7shlb4iK3KPjOzdhDzUSH2ScQXqShKWnr8LwXnFTqx64f  faWadCfiaaXCManrdnsw                         00657vKEedytZVDzrVWr23357458FxHfWICpqglm   YOEImXSUDfUVvGWeXEhHwqOfJK    PB030705221449XTYzMwhzMWo2000000000015PB20200605070077561613090317980     XWHfT8gDvnj9bnwRrFGkWT9JEPItms3w
00084653831114ul1rvIZrgOJtX1fnNENb1oL2fhdJWRII2cAeKFv6FCSJdl   gGRjlWkWiqnTzHAvtdXNKOiHmeAsQUfLaeNEtZISKWROD74140dzsMLTtXzgQAu  97910081ntnXJEgA       FMzbazepVWJ                   PB2200733726867TshNkVif08P000000000014PB20130421090056767885710000000     LgbRmnGmM3Iw5JnFXob7qGP6FCBrIkT9
81672433970208wJ9AKe3D46nUHKGiX                                rvuAgoSiNe                                   70465kvydq          60099579aVFwrGaRHSu    ahhVeNWEbpI                   PB2276096453799Cp2zckxXoek000000000009PB20190613110065243844562369593     QN1m6hy0OaQLpelBsphZShZGuKqcm8FW
93383011599005YiGbt2FR6Z3jnqohiRhoUW5xiKmg                     SedsbxXS                                     92940sQpUVpmdPyQsR  17047306HtgZwW         RYSEwxKiRbEZJvOEOF            PB130428986934G6UlphVAi1ZY000000000012PB20181102070107468500090813134     OL9oklXhXZYS7NSPIOyZA6nA62bQD3So
12404996890606QhDTcjg5rSiJd88Ge9vqcFsuspdn18Jpw3uOCKo          IXmBqNUjreXpsWVVwwBWnVAKequoD                00295rVvTdT         79851975god            nQJeSsauzcedBpdiEgIdQtnouH    PB875285262733wm3Dq4qf9BKd000000000003PB20111225060102336962550000219     tzArAotkCDRGaqfFwFjD91WKVjxp7s3U
87238193682936y2EXigSseJoUdYP                                  wFHCxivFYSZrOua                              01440RwNZMqH        71963753pwy            beujhEmBNdk                   PB940863580361NvyOiY58E6Bh000000000013PB20150205030068273605360000474     aGFquVTyCzUakxfXk9q9WKHg5XPJHeo7
81069210693230t3FqmEQoo1IhzivJTwotl27fI4et5ON76FpJ48           oYZuyWAHqMCySyiViSoSCeONCncCJlZkduUgfDZHDFPF 00038crRtoaPdWGVltSZ67717339raN            xryDkQbxwBxoPwuEc             PB3851159329119gWNidNxj2cq000000000005PB20140104060081059824480000887     NAUvEhZrbcDmvmarvpENPx1JKr2G0vKW
00641610304475B8tvS2EnQEcICcROBcfBMhq                          DkIvZlggdwUqhinqzgxWJOXfvFuP                 05981yMLEg          77494662bVdSaLHkVo     RUYYJwH                       PB979274636770P6O6z5IJ6o07000000000007PB20141014010104511013280066218     OmaPBuXzGSuBylmbFoF0UE1DtJAfEX9S
949761395531262oUvjWMa9SQyIkLmLkF8GOkAew9dLh                   MYnznYDOJjynxjFuxSZmcLsZnCepBjdBPw           04199DsItPyjAXT     31579928XznRFlPoeMkym  xrDZhKmKoCLowYwYFntoBA        PB060035050479fuJj3O8C6fQj000000000006PB20130913040036298376660056484     qLyokKSGu9SjLLGmquLhtSlT6uPRcESS
23991401304880vkeYlwjDy4FNgnkYmjg                              uISflXPpVLIoMHtReBqLJjAPXIFJvrssYnqh         00579snQXmS         40787412xQtVMEOyelfLst ciDUpucRd                     PB100868228768YGgg2SvjACkX000000000012PB20180905060055519296910000935     O6goAl0DhD4faRACd5gowR0JDU0EMlgz
00080078316499PMTLyj2qLvNZjThAmro3A1f                          LzkWkjnjplOatbPkoGJzxUZbRKKtDuKmVXzvh        00055WNwOMlDPEmgA   31347387WzOFLnkzb      WhWwQgnuKKtbfl                PB362762610053la0wPZwPerAH000000000001PB20160423080022607271270000068     84QeaXUXugI1C2N5OWoDadfgySE7Ev8H
40079787325522awrRiyhplLSwZGxsEhnL73qYjopbb                    QaAUyM                                       00009fmy            16119920eQ             lypqjhDFyV                    PB283525782744h7Xe2EzMFmvx000000000005PB20180813010048843784900693074     MyeYNa5p567eButsVwgE217rLVqGOyOM
112681905437890qQAe5BfYXAetgrDHVSfJV1xJ                        muNtYwhbCdCFaRThEToIpQxvjlNZHlokmvCYKEVcNF   00009HByiqphN       16683646sZZDrfgtZ      VhKHeFlMVvzCXLYQu             PB802579189832JXGJbDropRXI000000000009PB20190417050093520279070000032     ERKppGAknaIMMnMkEcePQFNicsi1tyHj
00035646980607kvvR1xNe4sKD54                                   xkWHOfrxTTpOikamsctOurd                      38298ulKlOhuLVxFZxf 04305816VTXcULhZrTrfr  dLYBrdYw                      PB5826184388951FVDvyOeiz2H000000000014PB20160225020080298010640000887     eNwS37LrzwMHELnIWVdBqCmklkwXbkIf
19273381492577jTqh4yZZ7Qvnpkkcyo91PBYeWsORYTa                  eEp                                          00427QwXPm          49437767OVTosWJTHwHEn  BtWBDRAvkXNShHaygD            PB8337506213738VphYWWSQ9yI000000000011PB20120715050079952907990000000     DSKIN6CrrtDt9VjNntOd8Ippo40xhPkg
00268959828402lAcJJvmKNxUTaK0gN2nscaXARccyUMMmkd8Y2i7          ZsnBjoEdOJsGiXvoYVWEyHdGGkIpEpBbGcQIRMzVm    48230jHMOmCHufxP    34322409DiRgsdxk       mv                            PB250079123670DxUZPPxkoEC1000000000014PB20140620060061046278470052248     arck5A0sj2HftYu4Njf677OYI52BoXkM
28204469968700bVQgqPyqmUOuxLCYRhmDJy                           FoiwAiOScLAtomfqGeqdITiDBbgayX               00001YLyRji         08851418PZeizTtanhCsbG GgAEocZqrmcjzioTNHizq         PB423720656598PE2TQl58MhAh000000000013PB20110813060086657668110069174     G0fu8CXMc2zSHFzYQ7lFFfXCapwYXKCD
36627683423033WKGGuU3LfJJMF8mgf9crarted17Y                     phYRuVxuvNqjR                                00885mRzjJWbdavaG   20048472W              IDwIOlFQHKRbIXFACQVWrRl       PB873046580400EMIvrLAhn5yJ000000000001PB20121004060108051310217352484     uZs3jAKYruIDg7bMuJ2kF55ryLZOMlda
70748778297900pMAfGYrpCqKTmOWr                                 bRTqGyRDcrJhHH                               97792rrQYNSrqmfetYhM13229399DYLXsHhQZ      yDQmTBHYpVgfNADUAsghxCVmtv    PB559061861259X9TfuJ5OBH0P000000000002PB20121205150053774104579420114     BPv1JW1peoA4YxcR3oGtOtR3PWwc1DRQ
69775937275908COXh13fgoe3GhC                                   LNNFlppgSMDRrQckVqRigTemlHd                  00030Vx             30091540FNuctcUuIHTl   HQlXhheC                      PB854186356669fcnfCUh2zQ4o000000000001PB20200922080106210874200000096     rlvNhmOiSNwgEMNuAFCRQ0pQwRrmqLRc
36813457704569U7A7oAhpWi7mjvkq7K2YxqvbDsC7vWG                  ZAkRFmRDGGtPDwUXMtuMLjFAMewBZlgvoFxUJOCFB    51455LfHOMCorEqqIHm 72133978kcRwMe         cRXPmWseJiQuyvIDMwUpFvLPcHRcACPB520749821872Jd5Rak19yMGk000000000006PB20131106140048126086980002124     uidPXYsCpgTLvsrFZhQL3FdA5TBi4VlO
29814901898006mZ74CQaRkX21wNdvqufdMU                           YiWvhGojiefvqfGxWvJNAqKuYyzdocEa             00007oCZzEGeKWLZRM  05450887xT             vCbdPsUNAYhtIShpTj            PB104919613695u2dkGoYgfKIc000000000013PB20150801160018725369190000064     sfXGTOZpBQ8y1XyKzpBpJ2YKTm8g6sBR
31109972675344hMUQkx2pg8LR5EmpnzFyA                            VsuyTwuxYZHAUilGAwVpfO                       04164KwgSqOwu       28326662BcH            tyotagbbdmOFDAfYk             PB8504866172235VFQUDsGpt0y000000000013PB20191204090016245845860861215     p1Mtb3iCLEwLLqguW1PI5UUKUPFrYTzZ
54889627028508nZ8TvmtUcbzOTXk                                  iCJLNGWPfOqZAuOQNuFwdcMPupJo                 00099UxzrDezorrFP   91138887BoqCmJZTXAThASZxCstNIGCdrseHaQEsBsutJuPQ     PB352455970800NKZ8UwkMhMU4000000000012PB20180412120012187092420000394     5ELXRgOvofmZtcwyiU5r2EzrrqtmuV83
603216131953018FI4dMYRvVAGJFHvSxzQJoNa2H5wl4I0NdAm             xiQDBRRWZGUZIpKCBOcQZF                       00077OJDNG          82432386VXszPNJdURMEE  MXBJysHpIcXXDHKApVZYc         PB844031714478UD4PfiJpKJsV000000000013PB20180222050065849114265041417     L4Vrbr4P5FhoPgofrCZkFDPVmbb2QoYF
00022242141546WLy44gs4coMUNqGeOB4cqzXSut6nGGfTtAvbdR6XrG0Xdv   aAyfPrFKlRdNRaJdqKOEvhUeZtpRgdFJAAaDHHALPVSj 03803w              08008635LqShoPgTRxtGE  gJMXvkZqXtdpt                 PB865137702638Ng9ahJQ7V8ce000000000004PB20131201160051425499878720149     nezyCe827ZsBKPXeXCyh8x7D5litA3Bd
72357565503710KCgeYXAyg1jn5iIav                                etfLmzoMoVQWtjNrgDAzbPNMizimrfJOHquOUJAjOf   12433QHN            93009681U              vnvIXF                        PB504380895846rsQTBIilt0TC000000000015PB20111223130035107235860000547     VaLvCvP7A3A3QBwx9zz11ZZHwt2o3UfV
00011533649561Kd7UOUlfTi4f6ICIKOdZGXlvju4DlmVmLes1Kjo          JYWankcLmCCxIbNsql                           07812qTSVbm         05905360suunKofKFcP    JRftf                         PB099414900477CJ7Tf63pnky5000000000004PB20200312070105035765853514186     BvASC7KHKH4yNZ7KCdT2i4mvkDiD8dQb
48340507453093cFLKNDCM1aIJcGvyt9npLXyEMHo                      gKPDqoHbIyMbAmPVaDiAbgMFRuUViGbLzpGOpdDuvvj  08089RzMEp          98617284kmUpxDLnzo     TkvtiBmpJEWPTCC               PB426048662660hOG0XXqGJ0lG000000000015PB20130611040105521715920912029     uC0Hj92a6Tk395e4MMMSwssboqLH4jcF
42428734373141tum5sUQarljgPtBHau                               xGcOAxna                                     00017svFfhdVV       31745853vWlmvdCuIUlik  AZiRQIghddQDdEyq              PB272614981501DohvW1QU5ZVy000000000001PB20171017080068937179260000866     4X22pXCRkF0MgbmfkkSFrX01m2gLIOCG
00019281608758IoZiF4xnYweGomZiQ                                idgGslWvrskkmSfjThoqdbiMszk                  67277N              44283244ws             RAoKFTHIAv                    PB8821271917711P5fyyYiiEBA000000000007PB20160410060013358850500001091     hcNBb5SgEL10SNrTMKqwOHDmfyzSeA6M
66345121591440UOAbB1NMmM0C7TQWAypwuzRF9iNqK                    gcagxqGlmUoxAwJgkTWlkhzxDBorAjUXAmtCdMbnhFakm00035HPnsxvprbkQxtI 93928371ehga           QvcvaRsZKAix                  PB249922765175TggRICkXlX1m000000000015PB20191011040032615565310000016     GJq06tNzz3ZsKdfMxjgxv9zeV3Q5hZjn
02783858652607lcupvupx4VZYqORL7bEUYLSC3MXkLsUYANjk             wApvdZdCPjDcNvtCNqZmihmFeZEO                 00649JLnPZyjMHqpNs  70915732wEeTeMDzZueQw  JRNnmVxeujoNvnY               PB334885885936YAFf0sy1RlMB000000000009PB20190708140036936183291558848     SXjBUTZjZkMM1dCnawFl0SbUtvfdBNfm
74733629727796agWS9VDKIH8nFEGNq                                BDVRocNx                                     00012NACHscXdzBWKVOE37830677sVlvLDbiMHoRG  NfTUbZZsNDxXgDZW              PB978768794969YJD6Qx9vH1YR000000000009PB20151108090080979142210000021     f1QdGjmjQp4Ifgt38RFpszti3JBsLqld
00054964554309Rw8RCQ0nFJPNIv5rt7U1t                            ANXnlxXXVhEgJo                               00001OFPERlOwndggW  86779861vjGfua         J                             PB135226687113ABpwi1x0emAG000000000008PB20120210150096950668244128885     EP43p7L0cGCWXnGjFqn5TJ0j77fvuB5c
06596081060954FstL1a4vLNmVCCOuihrFIJmL9                        xxpnTQzMOvurCPvvPOOtXcnYyXdpQqkxQVrel        00003S              54938402OYuJpIOZgBAsi  fG                            PB333613823735g6GtgE53GB1h000000000005PB20190520110015989683010000046     WMM0k0fbn6XRtjJ6a5Gfi1gOVOJsQaP9
01146279277903JIfR741PPrrn2H8wuh3qVFcstx7OmzW1VD49             yDQ                                          00007cj             29968671QNPKpeeTGOz    ovVjWlfMAdWnEXzThBCuGJUaS     PB160997887334lQYS8g8m7ceK000000000007PB20200523070049308733290000002     pmR479YVMwzOPHZhlb0X7nORYgRgf27v
00075890532367tWqqWXpbPB1WQlzOyKl9XKpyl7                       raAUb                                        00091nWJHEMlJFMoH   99872808UJjnVGajUNfpNB lgzQLfIGYuBykPKtSRp           PB330122603287ineDyiLULoXc000000000013PB20120903020021575787120872493     NQhzz1mjK5UklN5tX1RIclj8psXOoJV1
99682469160236gtoY8Yada5x5mYZvYXPR8iBKaiVyAxIv5J7              aOStkVPFbAFZsyDUJYTHKEgZMaHXwSuQyYDLdbbphpRu 00402WgdHiMXWmAHg   77974345cGPeZ          xDDVacDVMrgJ                  PB398787719497Eg0PigHwGUV2000000000004PB20170720160039071108890005149     5NZE5dUlSZ0azdkM68MVHDno3DYb0szN
09930550558665M0tK9mdgrA3CSzcIBxsZFCMyLKtaAveQvw48j3oWdWdph    UwT                                          00454IAJFabwQKeACO  19073705PiQNBjTTrdtJe  hxvyQoKozRJ                   PB072282445963VwkWaUygAhqr000000000014PB20150506130073329747980000051     M9E81fnaC6E3ROaF1nGKpmOVatL0c2Vz
56980376523850GhGmeagGEA9BbgJ7H88WxJ2NdCkTbePXtE99Kx           UJZkcaJsPSGukgtUJAtIaGssBmChXqcGrpQCoHYxnUA  00784NI             52411225yFvLCHdVDhbPu  MvkXoxYAlQGZjVLYMSpyWib       PB122983401413KW1UV1dHBKGU000000000005PB20181013070102786566693390214     sdG6bF2ta1oFiC67h3PchIjws3RSeTfY
34803347730249OcVXMug3vXbcaDkVYgaRAErG8z4eskVEXD               WbtACckXUwLpnuIhfjKrQ                        48671ZpfZdPRgrC     10597787oxPGpUmYe      lYztYrshpWRXpNGbU             PB5938959833022onNsQ8a8R4m000000000011PB20121209040054456861650000092     hxTmM59tp3rYaFPnJmMR1NBAvzoUDgTb
44677486711788oMgEF2QwEzSX9wPlkKuLGG2ktUoLy64dC9fFM            ZaWyjFnXBxUsnzwZlCihIPgHUscal                62723VmFfBj         03041673kZRaBMa        TxyX                          PB548140233952OdmLvoAbUWTp000000000005PB20140515110031631847710077823     IKOcsuu0WFtKkctBgYRj81VmpMZc9OVi
27644972613185MbmGFhSscHgdw2XntY8aajgNc2LtSXRyzROWd            cXQUKAFIBFAo                                 00535VZvNU          14592274xiPCRozS       fyQgwELxeGSxuwZXGCyURa        PB935689208962fOd0ojJM0pzx000000000014PB20170519070100873486730000096     f4uyRYa1zzlwuFW2iysjzmNw2iysoSEW
76821362885115NmIlTFioWc2rfJbfo                                NWPULHR                                      00001vuOooZpdnZkRU  26630688BoKMMbDA       mGVcOmASKwV                   PB499771271390E6k5XMJ5sSQz000000000012PB20170421080044725754030093732     Z2dqvl7fiI62u8ZBvlXdZkYzFPN0RmB4
00076494231314409TtrAzm8ZwDd0                                  mviKMTMchNJVpVXmCvQzYsRFrXYyLmHeNd           00047PrqMlqFLjpLS   23048931nrdAWOtRpmwP   pBiSUWhBDjYlru                PB6275181534020at7JJMfkDQW000000000013PB20200106040030502072600000235     zpyLktsZ656j61MzLUfOoNQIdQk95Soy
02218686987710gzB1HtyCrbbrXeFlPujeI                            OtOzlowaoYVuu                                00404PxhpFXCdRLLo   46173246TK             awnHmbDbYxAKvElZtlwHTSLXnsuq  PB588857586385SBqpb0nFazos000000000015PB20141216090030947528880000002     5xt3X47ePTrdJWOAXLu5Wc26h86pfChJ
000423284517801DxAXU3boed3K7Yd6smp1X8sM                        hGNyRhTkoziyQCFc                             00035DzYucU         03871420dBBzJQ         LRytBEfsnePjHNhe              PB461198926223NQSI72F7v2BR000000000010PB20130218030079362246516317350     nKyg32Q7y72PnqD57uxq6LQIAW7JKbca
00054302323353F2L32qYT8PxoqFNEQMWdANr                          aEISKIeLgynWHbiRKVoMyiORbUxoZEiuaDJyHK       00767Rhgj           48223875LvoodfxZ       McTYXEkqjWwzLGZ               PB532889635098Lps8NvMqqWtO000000000013PB20190213070036936286460000339     uPBtE0CA4IWFQZ5YqiRKVg0ilxyfsWtC
19838949909132q1G6D2204zKPQBHshagwhWFDPar8oyZ6dnP              vCqzTDL                                      00006ijG            94261464RJHXrcyLngI    QDNSxajPIKtKzD                PB847030451935iGYR6BGOyxCh000000000006PB20140812020031125684432544326     JFQ1tw6IvXx13MBqpsquU8yRdbQdLdjK
53853379019168n14oAuSdOTOYdmpiRp7Erowl6Ig3ItDlhBE7mDXfJ5O      dqyeo                                        00806tjXuVKXJbQqBJ  02172521NGb            vuonchMLPXBEMEDqtHOCtjBCzfRNT PB8831094494407Yflf8p5TPX4000000000016PB20120421150028295871480000716     54F4vtxwBZQKO1ayN3Zqrl83zExfY5JB
00061928231039YOGTOMxUEK5z9py10gHjLWqLgke66LJxT                XRkZGtQVfDxmmYJaBdiLNQTNEJMb                 00724jVPivJGChlInW  15682754QISbFnwlHX     ePxllJtXCDyfIidiJWKgMoJe      PB0456305481012GeWOWfv1DqS000000000004PB20191018080030448986349447758     vQrrHeN8IZd12ruu5flgPpLWW3gxPXO4
85045054646654Yd08nJtmgi7pq3OKF0ah                             TTBZqVdBT                                    00191XBWPw          62527663XEFVvD         VNoOkWKeoTsrPrCnpWwcwDdxaqyy  PB828310849267oo75Ylsfos29000000000016PB20190201150070477908640000101     bQfNiCtM9cOYsKj2gdq2leJJ0h4398DW
00007148313368GsTP9mErIN3VMnfiXzd7uK04ELWLvbdaYjtzI2ev         ntMlBZiOqTOPti                               00724yZELVxfsncju   38806892FgFSGGGbl      j                             PB088196496372xUfcQFtgSFWJ000000000003PB20200719070010082143420000004     VnCktJ9zAOmyDGy2i82941EwhKwDpqwU
000435752047997iqVaZVCEyng0D0ajcPs                             CkLbxdR                                      05574cfDFbQkSqZqb   18627447RpgqrZmBpyzq   IhkUwxDtbggBfCLShezeiNwB      PB1512281799972bFR0pn13uRh000000000012PB20190513030039375424540000623     2n8OCGW5Q4pdfv4TT52PtNnGPn11L5G4
827086745084051HRbMXhcwzzZQD7grDrQoPOmCvCXhYuD5j3fYay9ZgS28LfX MviKUoLWTtrAttEysNHKNDLu                     09576GYruDY         57332309rLFNLrLWALc    HyXrAAPAgbLwvKrKEtMH          PB724650052570yXAwO7tNsIUq000000000006PB20110525020054799246970000069     sQ6FrXETXMwwvOqAsMrlbegJ1NPlrPOv
00078745295379lkKWLzL5XTPll2GQ                                 TPIHRNEgdZxYNlvWPBxVTMBZxgMFWhXMcXa          06324o              73815982yJkthwhenstHkENkuHiYziXti                    PB0403741372622BfeOo4Bwu1f000000000015PB20200117020021036740850000002     p6GXtK472V08HZlwos33gMMKrwFHm7PC
00030028102231gawxWVk0KMvbFYP                                  KfoGLFtFDHYTJ                                00048hSmHZW         24195936nMulcmVRPrVP   YDLVYju                       PB341679866892pYSjHnTDnRk2000000000012PB20140224150042810994570000749     Q1Uuxra6nq2Q4L0Rb2YYavlJkTC2BAf8
95705514965944byYv7TgfB3uU4Fd1Mg9IYtgUoKD2MwkQvxmphFgKB        RkhFlGdCT                                    00728MIgsVcJTUwj    15987823NZULlpyLqxQtLhOnpjBsqpOtEnnZ                 PB621890711101tpbbRMvbwigr000000000012PB20170818110096265993140000867     1ioKqj29WYxW0kXQOlzjqBRZIK9U7gt8
97152768767510oXVzU2oJlH52fZiGeGvfsqRk2zbpKZTNZ2DNVviDs509v    mEHZrqevskaobIrQCUNiyJvaVtr                  00789smaSs          59770255jArnyJYSyPhwg  KDHYEuILjUYiFTalfYttieLyH     PB181876906655lfQ57uXlUAMr000000000006PB20150314010054070465850811565     5KwAKRUGslhKKdR1fh1AmBrSJoAy0krv
57268538564736eADlZXHzqJfO5j1D                                 u                                            00391XhXxHbltYJIUrv 64479350v              plNRRuJpFhjljYWC              PB400540792704SHYTO66hzutt000000000010PB20110422070040340916480564199     josuhoUx8yqJg1SaCmNkGF80OG0KCaKu
83319408904561lLSZZzVwdBRI2RPB                                 GLOYppSqEWLAjepppyowDbFJWVdf                 00495WlmPSdApj      96863741zYGQqD         WUjGSfHPPhxLKEsaWltPc         PB529097474426fqAIVDEwpBJO000000000008PB20150409150106111933830000007     22rrmJgj6TEm00FfoVKisCmJHbacjIfl
40712092139155L7xamw2XnQFAcnQXsFaQBLMFDhokDn                   EhoRMFOFC                                    00006ViCvEihpQw     33473222I              eFUpgQhhmmLfKbdlKCBgXUcuTtcEe PB796463580791ROZAw8zUi1gV000000000008PB20161012150049893451846476051     1J0Bcw7xd2m7eusSzV42gW0C9Xrg9LMt
61589575840923kyWnN1JKSnUopL96RQoM4XIeAZdIwq5FA                vQjKrhMwoS                                   02154GsP            38745095RGUsHfzuaiwC   BtM                           PB394735131700mp41sX7kvSle000000000013PB20170105140052558663220000008     c4y6WgQ2u2kG9jFeSIXwhZN7o4Qdah5X
88561529458571YsdwfIQGwDwriZPUX07KLN53dG8nYymJ                 dWAvDRGFiMTEC                                00557R              38679339MHGCEEBDajdCn  GVxYRkcZKhIXxqeUmMayTdyyFpMG  PB3903287270492vWvhDXuILRo000000000002PB20151219040098828999910000728     ZNCJs6JJJuaIQ6VMGgYJZyGythX645sH
12776954023463dDDcdOIhQXPypYyQBmzZJlnhdNpQDhL2CY1A1fqEUcHm     ohAtUbjnireAsoShWTcMZGWPQzDZKLNyaDiMkCUWNPEK 07072psgCWLtPCAfhLH 28167853hvj            cttDuWIFYIRQzsGGSeXjOeGxJv    PB019841513020ll2RvdcXxH9a000000000011PB20140803160015851756990000552     ITv0JEHNIrcbOSZzue6DWlqENr7dRQcN
68304919404700yBRAx9CJ7nBTLu0coN6Et9eB2EtMXgDxWpyQKIrvwk6MD    zijx                                         08223g              20464739DtDp           rGzXiDBJOCVhXSugHSOAxzWftRoAspPB340554296881BvCCGaaBEbJW000000000010PB20200415120023099041190000195     7W5byKNLGckXdJcyo5vM9QZTFpZHQFCr
30425210892654BMsss5jYHQmXpBju1vHvjAAxiumdiVStvP0pyB7ChX7I9    mDSjWoNwtgQjKOyi                             05706AJ             06329556YXkWLjzyWZtVVFwlmbGDRNo                      PB132987326486G1DYs8MCGUWP000000000010PB20160721050071020132730000005     nMduG5Tk9fy7n1B485KPQkjs7HbfMyYN
158146356243067DpWoJHIGLygfNetahQMKTgrJ0ASdTu2eZvMOZ           pRAYCaDdOjFaWU                               76925uJZHzp         99551901WgSSgFUsYwg    OvIUsVQhb                     PB553836970298kIO2ivm2NDvt000000000012PB20200507150087892220330000585     DnK2V1vPGLprDz4mn6WPCWvbFg7J17hQ
54757533569748wdBYnE3jEbH9siqwpD13Du09sbqqBZ                   CVTcPTCvpimBsQrutqgBVFayfAbpZCxQT            00081AJUzwXnagpTVQS 61827016DBQMXngCX      mPpSzhVNmbWqmljzgGMiOhB       PB840475368922VpIZMBOwJ0xJ000000000006PB20161122130107074807325485240     Yhfz7vbEVD7P9MNP13rJXAijLRJdm8JF
955349512421694131ZCBB4m8EPAh8VkULOzqIuPg792nNGVZIbZ6hvI69     zfACeoNtgAvQxRmNVdpupKGMcGRgUsQy             00179znh            07057748pAALmG         jhPkiPkUoBDEavtc              PB045577759257AwQO8aTuVTtA000000000009PB20201225090012499998800084137     BNtC3C9NJjw3NoHUVbaVO6JcVil1NMNZ
86004511230100ddOAdVL37JmX0GIME0OMBTI6QMnrxW5sCADtikdn0aK0     yhItnWZroRrismWYtssFKdWVFUAPRDTYpNeWopCi     60041IliFxPVEgpdcDz 65131887caLuP          BOxdzoqTGskwOpvHOqFvcBZjfHBtAXPB0148785245016u5JllcO7Zjl000000000008PB20191209150098004427930654516     XFEaNxrVtcDTzurtOHPaFAPXt3Ad1tB5
0002474391185032FToU6DHZGF33zLQ                                QOcuwQStGQoGOaDWzHoYirBDZLfRRlYplwEE         00068VXs            66936389oHaxsHNCXwe    rgWLRV                        PB923971201236Ubd5tSrOZ9GP000000000011PB20141021010089616757960093801     Zq2MK9omQtwQTpCEpOCuGVFjKDo1Imnb
15902149268969e3ivk5ZFRVsdemHLlKOgbwTjyK6xVW9nVYGVvibV3Tinf3   UBUQFHB                                      06190kJRIbwwcHJIa   21936967f              zWVgCNWsiBslJ                 PB367763461094Ipv6dOma3mX1000000000009PB20160123080106501696140009717     HRyQSVdLguw5ozTyK9vyBNBaahaK8fDN
81555496368436vEq0TQxRKWMExn9                                  wCxqyofMslq                                  00004VVasLvY        79095005lYtKN          GBXpesrCCqxqJgpYeasoChKvicrJ  PB951440538185qQ8Ad7bNv6X2000000000005PB20180708080079406279830009856     TYdgEZd4lVB12VD6JZNgJR6Z3YYM9f89
08058651851683rdwKmBmAgBGqKswME0brpDnA7Kj0jQUpigMZWpUsWGav     WqYfnGgUsMvLjsWnwODaofbDPWrDiquUgNv          00051eI             88649989LGxHAkaogxaPz  Na                            PB456048683379icsrBGQ9z3ol000000000016PB20200622060036798357690006450     zWY5mK5U8Y4CO09kpsDt17ZK6mJ0HLhC
63016695521942mQ2vvDOlLrSEcJMW5WLwr3wrgpzM0j                   MOFcQkPnUlohddaDzzGBLVnMBvXMRNxit            00070WCdKcu         43174828dHXhKOK        ZSkytOOOUVK                   PB1428823125868m1LsNfcpo4x000000000009PB20150320100098945040020000002     EispGA54rqyKqSf2QbjvIYSxal4RnhjV
12936937602047p4CxA7Ss5IHLPZfUYKNXytJBHMxtr52EYs               fcguBbYHBEEpTAAryyJxsVewxyrHAKtTsyLmwBFVkG   00080IjbjLtOqqEpwMe 66380785dBTTjQYsyCThoO MDdsMAEdQpq                   PB139209813410rJgWtrwWnFbT000000000012PB20130423060093731003900000085     ytJifkWFab1yuMXbSblh0ipdKITxg6xe
14948486025517DBBkJpYt0mPa1unp2hNBE9kh65p3vwIdL                MZUzoxWyKkAgHgEIQFTpDLVZylHuUKjoWpikMUDetBVNY51823EbrayopBsgRUg  03262773UFrv           ivzscoVcv                     PB882714164737VdzwSJDamEW8000000000002PB20190116120082793992460000828     qVgw8EyKrhE1nmwpmpuPr22VGSWtaEks
50816944071120baEZhP6aiej4DyA5tj                               FViiKXOvPpUtAAtRyGHocNpzWQQcKfIcyMtOt        00147YPDR           03450494ygNalqvry      aZVYqBxtltARehNxMxjQyVaCy     PB576537615529RCTCAhVSURTw000000000015PB20160202070068344313290065014     3phJAdMkWbGAe0VPKAtBM3FKfYEfJ5P7
00070520508629cBumEf4zRfmR9xgs87jsvtxuX2rnT8A6j                DavJZQgBuAEliYzQFqRNqmc                      00005gamPqMeSRboQFa 86815299rtWpXt         uezrRNIhqYjmXdwFjpJQiEgULxuJ  PB642390273403mDQJDtPmyRlf000000000001PB20170203040039573936450000542     hIazdiZUgWmTUeSC74xV2zHl5V6npFcC
55031860697355GQgfLLigdYWziLg                                  RxvZkbFCLYLvEUnYGLwrhRESxPSlYKwvbBdFd        00533ytR            96967725yN             w                             PB9475159523913lmZLDcOYxIW000000000014PB20150807060018757860000000005     LFgtGatAVgtgKWA2lAf5nJJZsU0hrCPT
05113680919932oNlqVTtvTEnz0gK7sK1xkk                           AZyfikeMgOpSoaOzrCuIUHLOOUwwRbpbYrwxORbxycr  00005iUGVcLmpgkfJsb 20086137Y              JkCmejwIfzGOhABTeIHlidkZuG    PB956087792788yBRsJiiDWZ5h000000000002PB20190620150083448928760004055     AFAlmtWXaAjHNs2iLqSshNTslWOfyEkR
52273257615336lsxfrRpucbIoefM                                  JwMESBATnufzGkMtPSLyUM                       76538zweXnKDYit     82204940KYWoakFfRUPxmEswXzUUebtwPqsmBPk              PB295086748164dQRxRee7VLEK000000000003PB20180308140101932148370000003     jDHevPfYk2q4kLOGkcWiHA2PEjcQZRMS
00052610056630FCfUn8eHLLRI3OMyZXsEetBp8dpW4bp                  SgvyBbDTgVEuYYJvDKIJrAYeFDOEoNbDoJ           17543XmofnhuBKuB    58110005Q              sgEKCQISxgweRR                PB266355809630VWtJgsvJuCNw000000000010PB20190112100088996659540000744     yY3ZtasLZKgG3D156ykJ8tz1xyIBKWAZ
00091243154608aShjsPdaoADf8EO54RNbmdBpGltIvCzpqmTnOWDawKS      MIIxHyiWNiWlDFgKCQR                          00081NWbGlvi        41395149Pksph          tUQDIppurCWWheaFxm            PB669793015091tkthsqgftHrf000000000006PB20170602020072858514000000001     hyePjfDw05QZewkq0qJcxjuiszMldpDq
73439969157621tLcqzfzfVxRaZ3rEIxUR8xPEKrgyJi2                  zBpTHNqlq                                    00007iKHojsdYFtgdJ  71342318vYgVo          JGbfTIMcPRcDKFy               PB565279364475dra3eEaW0mDq000000000001PB20130909100055334506580086990     STCNDfj57kJlacXuIEp4JAYR6ApmUpdR
61716853372504st2NzgqeGbnx4yqSYRGYnwQtY2                       yKLYQsPyaDzzNSbKYqFTJItzFHSyYKBBPZwq         00091hNwBQ          92570723ThqChlOylGXakFtqqECazjFeXHPUiFXGsGVH         PB590654699751QoSgL1jH4D4d000000000006PB20180803160029327073480000095     aqSq00hyfavOfMvBOOyhl216bU9lkWzM
43384400785450lxeYdSCWzhzzrq2BoEQI7ePx                         swJJTLrT                                     00008ugiAyg         94846997XBSGM          kFfpFTMLEUkXPtPKCwehH         PB742745579630dw4SPjA7GIZe000000000008PB20181107160082222276400000993     Cr9jU5ycPY5LhbaTXgmpQPj6GUKuJpLm
16392232379058xADoXrSDWPo93gXr453FWURRYpkWSgozQkH7UgaG8i2Zqfs  lBSpcmRUKUGhUsbpADQnLFlWVABpkFJhDt           23594boS            42394654ojcV           VjhroEUr                      PB260462063911ZWRkl0Q7TtSD000000000015PB20181204030072122921650000006     QFwcf5vtqZrLPfxWXPiy3lNBrD5omRxT
350250066467079dwSN9HDUDza59sbg                                FeFvSaSr                                     00028ndqsBLJCK      91258429oTjOtGfuKquzBh EKFYpLukCwnUAJDmVsTKgCkE      PB996893747564egEgAoKURUg2000000000012PB20120709110050757299880494929     RXAGVFxvp20XiGH5yLMxp7v9Xhn3RpfF
38702166328284eRWCe6S6th6TNdX8j6fRWeP6Xz1Licf1                 kcIgSXVwhrfEKlDnHujWVXogyZFGKzYgQr           03344Q              79402965IG             cNkpObuiEomAFgCvPlryWqxRjBZ   PB626150797159VxjJKr8xzZAe000000000013PB20191109090048918515540001823     fEle7AtndfYAA1VECv85e87TC1EXWxNB
00055146678049CAPqE21KvCuahDj2WmYIwRy2BT0rBOHUeE0              GbTWAFFkizfdGI                               18319fSXiynDXvQITlf 40926604jdcBcQxiFvj    nxhgAlvtBUVZpKmUUF            PB805512614704DOvJVqA0MgHB000000000003PB20140902010038226301320000050     uX8PqajB2TvseG03C0XNyeRk8DKp1Kgb
70314449851304l3EQGm3s3tSHd6oDx1H2WHzgxHuzm3yXSN               YsUGlOAOVBtFlAEkUwqgtaGdlHY                  00001OCG            65279977lD             MDmMKpMNmrfLON                PB949732585633odHvx50PPGhk000000000003PB20111101100103296963560002851     pEx82Fb15iOsQHEGfMjzhPeh8ueENEGA
36688428329088c9Ey4fyCzlsbwHdszYEtkpeG2kFngmZs0UMknG           BkhuWkzTGvtZ                                 00051hRlotMFfwGJYp  77876111kqQd           fspgLdlRaLtJoYHCRsitvBhWMOyzV PB332930124798SBJgTuPpZ1Bk000000000002PB20190101070029700544430000003     M2hg6nvgP7eHO90Payg8urGQ2lMIK2xE
64880554442637bPkV0u2U18DcvazEWck1kPYDQBIfNCmckBJe6hDfaD       wbWDv                                        00723dnKdmQJ        60626850yW             iY                            PB892320460294ZzVQl28U5avX000000000008PB20190606160084528610720006867     k2luPESrfOjkGduqglYHBCKBHPWgDbim
36427366212889JUDbE9WVEXyk7X88tAuaD7YVkGaWZ3IaAKkY2zYlfh1y8l   haOPiAFAJiLr                                 00088CYKooV         95830613pvRUOWpw       AADvQCLsgIWeEyGVdjRgsjphqfkfbUPB564491132433tNnJEfGcOHNk000000000006PB20140720020034215221890000009     0MjN4nTHNNIydRN3X39qQHOgptcOxFXv
85814475099871aTgZVghG11S2RT7z49FUt                            yTmMqjEink                                   00094CTXdFzwJvfjzO  33754009RgqNaLazseoMsHokXREzJ                        PB652183062514qZVoK6SwEg6Z000000000016PB20180907060017750644160000007     mtMC2SLpDPdTdZLHBXQG02kZIL9eDRh4
81870115904038DIzJozJ4L19Qior6iEakJHqtjBMd                     WcNZIGCuctIZeLMnabYoFnYjoZVpzmIMcIzTmMpdcpVCa02494WXCcvw         20703136mPXyCMGrPY     VgJzFslznXQisWhzPZJvCSuGtC    PB836652407478NiEw8HE1pKjG000000000016PB20130416140028675934260005461     t3I3QUp788Fc8NOs69cUN7GX4aybjINI
000549740480401DvXpIYIAdgJ7X5oO7wLq                            ARHcAlkHgNvwRoChYee                          33599nFYUdjrBPHCyn  04959912yWpp           XLlvhjs                       PB037358647341im4wSf7cEpCK000000000002PB20110824150109062178220078067     PLH6YLagpyIERlvcYfwvq3zSxFBzDYDg
41663341982849iYKVo6Qrg6ZBS9C6g2gx                             dTrNNbqJEmpfzlpWl                            05634DFPSDAKLXz     04558119XtnpzlTVfVVNBD tfwLzshZVzVNGLNlOloHTWMLJjWpYEPB685476560230IzUAvT9DJRQx000000000011PB20120910040029943384190094472     TV11EstctIYbpnkGKqXEWkIr4IPHjigx
00028782107785ZyGXbMPHBUODCmhOJajM88IdPJVdl                    zxhwFBLYtVuztbxpLiNHyAkzNokVFiEXtyo          00097XKTduBRfgNQxX  07050703JLngXXE        TWoe                          PB582743989818pgOiaO0lQ74h000000000010PB20181021100014743348740001500     DdaBoA0g3IWUzBjnQa2N92ivwLd1Tcxq
1275034927174354fcJ1yYoYDOBSPG6BpeqVN                          JDuTnztCROLwTdkvz                            00003FvJXCXApG      99366095Bj             ScujhWvAmbXWgJXIOgJXdEDCooNjXLPB406299759341Xw8aWLPnPDGD000000000015PB20161221130070068231376643376     GQRya0sjXWmUoEOE8P20eZnnsTHgT3Q6
03500717827834XOtz0F7aLCPfQJuCOol32E                           KXv                                          02966sIA            87484647Tf             xTrIagLj                      PB7169698295397fx3IHB91AkS000000000011PB20140417020028782516420034801     fEwZu1uWdMaaY0YLe5h2Ig08ps5S8pwI
74946585714532qEFxjCHwuuStVQau7xGUKUnb2y0wF7bvogdAyZElIP8W     zXUcLaPlbOPuxfvVpdCRrcBppxkEymKIudohsfiBSSeJq00000mNSCtnBjfd     96301107nvHvjLpZwrQv   vTvwIuSVdpzYMQLkm             PB185174726254yb2akHhxpv6u000000000005PB20170716110055603990280000943     31aSV9TlJSwz6i9OlgkGTncQpB6TxIIZ
64512865294199vl9BafmFzMQ4XMEw7tg0A                            bsdKMXwiWHkxIcaDEQHHgVJznSm                  51554jnOWbGYyAGaawVr72960052ZO             JHoVefJUSpygfCuGov            PB236419258115ejoCZSCNi6pC000000000004PB20130302150072304648580002253     TRMkvPzsSbyLfHYGEecgheWGW5g5Ml6I
57823143579437dUoFHWk5hoAaepsBF0zpAtMOTzHQICL                  cvNwirGNIpItFiGQOtwxtAEzBy                   22560MUgA           25478554EPujadc        RhOHabSmtalVyMjZssETbPZ       PB434799802179Jtuxe4UfOX5N000000000013PB20200705130016631058980377461     vNBHgxdfPU6i9mWhArJy2xeV5iLuY23J
79498926876802XfFxcTXzwe1wPl17dhvJqDc5QUrsYk3oUKMqdIrIOSXG     XbLLVzqhpPkyKiDxanqFdwsYranyGWeGaHY          00047cpBliU         64070607bKxFIKUzrZ     JYmVaQto                      PB190153486910enYWd9YBIura000000000015PB20180507110011746054570008438     rQrwXsjHzqqYaZVURADSZgYEe8aa2IfW
00089265282274oIFwhlvjEmXYuuIFFiuAQHX2GMYCLJn8V                Ljjn                                         08066DKJEhdJiDlpFy  79327351dHntEZRj       amCbOWAOEIaEFWEDGXSeeyMiaKM   PB1575608489268iBwKJSe2apR000000000010PB20150611130060041022270900125     P5QAc97LgTAHjtK1Y27xvfJo1l6fQEw3
00072276531967l6A7FfqBNz1pq4BRVFj7U3                           QCPMQWvRhlBjnacNtorvsndzqAamovzCEvoFoxuF     45059hwOrGOipt      90045470GZpKMPMZC      E                             PB420481821156FAb6ivaa4XjE000000000014PB20150414030077331905590070286     uRtukwFd9YxelMkwhs48Qfl8WLW8B4y0
87157283494659uebxDrVfMf7sID5LJbWco4IZTWbFQYUBhiy6k5Zo62dYyCD  eILkeEKFzaCCHxzsUCfVr                        00006qxldYBqrfQbXbT 14736065ozfNDWS        uXieaJbScLQZKIJwH             PB849869151960oXilrovvkhCn000000000007PB20180209070069309637810000091     b2uRASy1IyGVsXGfAxGITpKywx70dFkK
630955021062399DgWTxH8BLbcyayEH6euEKNkTst5rwT                  oevxXqtdTv                                   00006lZpyLWOKvEo    11250145tZBFfHPyfyfOQA tPcavWQhxEKeuNkVDndFwDYqSJIoFBPB574990781050xL4vyzO3eYdn000000000010PB20171201030029141658700000005     jUB0vSXwkpF8nLAKBWLidSA0zVDW5Z33
902533758766808sTicbbuAwUYlWxp54SNc0f4MKPcv47rvnAn5AYUdQ       iJzLvitdpczQYYDJnzYcpreuBJYz                 00009iMF            67380815EKloFqRfTIHI   paakveRCjFfjVkDArEEvgDex      PB239340236196pUAUVmqEEBYO000000000001PB20170121090078457978740000328     17NBIhToqWHr6nNEV4LW9mZpvk4MuU5N
61495829462907BwxpnnQGKn8GdNsSu5Ohi9VZrLxQfISpEbu2k87          WgeUekfLNmdtZxqsOnWAgvjGezsliS               00009mz             47722443tdxpBySVQ      sPDJeZbfHHiKhkiBWmDMydxLeGM   PB317932332165gHkHIY8XB9Ee000000000014PB20181204130063485752520000001     VahuChg2svhuexvceeqldqyex8XjPEq9
77131532829294lz5VWx3VvhNbSfb6oiqdIIg00nVcIJBkYrNbmr7Jj        suhRJThaiiFHeIaSdHQgXRgTNEEBgkPkjpgREil      80339KzTjtEakghlpb  19506133WPDXPLUGGEHaLV RfaBqvgBwjuxRJNsRqovKGZal     PB513974605379ozHLtXiXaqji000000000014PB20150101150075374522700858958     w30GzC1VVTNTBKsCbdh1kMN762ywLF6g
33586751625450HSgUDwg3YKwq6SdLlho7                             kvhoOKQZKjMYiAPUpFfyORgRjqCWhCwthDcYVDpkXznF 00448oQ             86435279kLJvA          ZgbkJPc                       PB424961810067pLX4vijzUp5a000000000008PB20130822120034508117840000489     Pqg1GfIxTGfxQuRKNwVM2SPab6TE3Y7M
48580248727704SlRI0XPncZYAx6ttfv74YRoFcHd6s1jjmL               xDVWxvVoslcOKqCOsJNlep                       08747TDPmJCCkcaJTCN 28113041dH             POMYWzLJ                      PB884885764062p199TgFN1K2t000000000016PB20140316110094301488320000690     8v95o2stoVICIAQdJ9yWDzdRjfJL3xMk
00075029278672FDRHec8uwwZWCqmBdUnZUaXhYhCEkTwHw                ghaNVJmYSenthTSIXpukLQHTRySze                12205SrI            86135011HffOFfGAZD     ECLfiVkUfzGzUPdbzT            PB216800216812LGSB2Ky22Ymn000000000009PB20191022080063910691810000006     WzuNGiKO8oJeP0VS69tdn5vwXFkinHO6
590680101963323pkEfRlO8rchbn8bCP99P                            AiEeXnPaqQQPZTrLBpiDwcxkLPKXZea              00300ynU            20685981KQO            gjzyKARUgTbrhXcogElZJIEJFBe   PB1881036654168pdi6OelMSb0000000000004PB20190216090054768660430813036     FmNuTM0CARLm2rCgDu94JcF88nieRyY5
00037750158685B8NcHhr229AsBEGMksJAx8fR                         SkeYwWmNtkCFhcaDzJElICBCDYxmNbpdIfDbpsbU     09194IG             55241229CmuzxNenYX     U                             PB995252331397VFsoBBNEilQi000000000004PB20181013090059143403500078226     VfZuNzGSEqmHyAmHH6wfQ5PBZCcH12MW
97549384961774b1EKFPQXfuy6yV2qAkp5                             nnQfGKUHUKWMkLuVlcIAYqtYpIHzrWMNu            00007UWC            02038376kWypiPR        p                             PB560613961859zi8tlp6YpvUq000000000014PB20200616090050033497340000057     GGQZ4ASKexNQaYDvPVawPxPhmFtJxw1v
000571182406646UgELgJ2EHHnQiWITtCRz                            JtXMfOvQIGIkmVsgQbFosELYwKvxOaP              00022NLNAJCvFtLpG   79574527aI             jHXSaRLXTvibmrjagbg           PB151093909581Jl6uidV1Uab7000000000002PB20111010020089016649180000854     z9mbvKDHDDcFsHdJtZmmYFxjy6uJy99r
81671275833797D3pFne0eTOM0mHW                                  qOZD                                         00002aTokyCqtkPYId  51140376YgKKKy         XOEZfwtBdsFwwZNeUCXAFUwgHaGj  PB551511207218lKgHj8JPGBdz000000000006PB20181206150095479693610000000     pAgzhI3PSCNyQOhK3T7sWfHN622W1jjS
13717387821503BASlRcJWPwAi8UJOYi                               azGzGrwvRBXRccliVPlYSJTifjPysGNw             00886ygNJM          97024798ZG             MhiaFRRZppeCmzXsslefDfSgntG   PB193897042553WKeqrzLJAEEs000000000016PB20180603130064809979570007907     PsyJZdktrSyhY3iyDvnQzRKRrwA7mlYV
83766029922097uamExhdaaA7z4ya6uVPIBV3bzsQgaYJSvcUW             CxwDNnPTuepFKihhvYZjxcjjgNS                  00085Lx             05802602ZnxaudlXaXc    M                             PB565871595371V8UwW2yetlvb000000000001PB20130403080028803107240015320     9yY8IWtGHvYErIfMHGUAMVDKVkXjCyES
00010541208705dpPyHcemAnAOI71uDfSlplD                          kyaRqcHzgijQrq                               00487NvHOtXjLN      86792665FCbC           iOFt                          PB545246360292Ls2DizpRXKdb000000000008PB20170422080039292756820009737     v9szuPMhHo4VQq8rlZn9cAZ7a0kur7Ii
4821986584288020EdohKWl2M3trMwWNvqu38cBcpkr5K3I                FwdKGOmDdGOASjydRBeKeQNCXbInjmozpDV          00089DGuvcF         70265462KmxkKLKBMREDd  kxKyKiJwzmvk                  PB4371102778784sx4ocF40I3S000000000015PB20111209020055225598850004133     lblfTtF1hmBZ7b3Vplkaqg08D2xEnMOO
05795387915905V7wvwP01SYdipb98CinJasXex4TQZQO                  rTmfCcdWxdXueinXMdCNNskOlcqekkLHEx           00003z              78828271SytmXsY        tHvVTpdg                      PB4460982096946c8XtfZNAVOu000000000013PB20141205110073323351330000000     FJb17nWaiQNJ4w5pVrg7WuqRDy4RdTZY
75249492233335A0tJFvtqap1E8VB7xYegW9w2                         WZd                                          24032uUMuQrh        26525054kCHYQ          IwjsUxcgPtyTWRxr              PB3233695853889dYMnP5M82r9000000000013PB20170119080079353966151484891     iqwRGhTnByR7aYJ7U71VqdfMg4bO55YO
00654976777115OD2F8bfGe3bWN8AVwosIKX3EMYig1M                   PJKAEqHNnTapdClbAZhJdCOuiGfIWff              03541LhmfIGUI       75682424uvlim          wsDNNPATiinZkAMDARsE          PB132021163665FpANRqecQCzt000000000006PB20121223060039143891160033610     Sw2mW8jeHvNComzOsiZAMoCE7LqL4cXp
16513730337864QKWmI1oZc0XtvawCxKFh3                            ShhTSDhMEaxVS                                68810KkqVwQTNhTRHfxa48200357ybhfDlJ        qgKgbmxfbca                   PB753876117366pZYoZ0Hb5GzF000000000002PB20130214110054195041423861884     px34dYZ0vhkO4oRpVWMWTOHYV57uXoJ2
12402218485902FUV15MQQzJewjYo                                  RVGWZlRhtOiHDPAmhMbx                         00048VgcSxwRWqM     19880448Q              VxtQGrRisAZ                   PB712163967536oMwLUqM78HLZ000000000010PB20160810030046242334250000777     c8bQHJZqgi7pEAd1ZhNSoDW6Nn4P8CU5
84955047428123opq42z6nDZrjCL3mVkkpvfj3mAEmQ27mLL               FSeArVjHNHJDCTydHk                           00007ILrxpgsjb      38164896ueIPC          cmp                           PB787427692046l1s8PsBG0Uu3000000000011PB20190525080024251475410000512     4UD70wItFSAWhlmFcqm5yVOBQQanWAWd
26420669441769KTkCDs2JCFj3bhOUKchhksBNQI5MUYfPfOn8KyrP40Uo3KC  iarbhdxukjUqICbdHAlMKHUvJSgryjoTggHLd        00429tNKXgAUBYCfJlb 21523138AucA           husXBdODqztXiQq               PB958846012226mU10iR24Y8Yv000000000014PB20120911160078321491040692006     VQlBgjnDkOAGw3y3SaSljGYD3AMXw5H5
94581522176020WKs429Y4OrrExkHfeNLI5rGqYrULfkCqQYiXkPJXYCnfZgmG WGyYbQI                                      00086h              10263749wdLHyKz        xhoWnMeLOafsBtLUVfjVGRjcOgJrUwPB290101790687MFAi68ZuvMwO000000000005PB20200602020079662191120091626     j5x02caWCQsfL5IhVPZxQvRQOcS91VHa
45428353787044DtEZGDPiTPykrNKB2HBCDT                           gTbjsRdngSQygulYXZJpcOxCNgouYhBQGyOm         83031UATeNIKbj      02700189Zg             YphQEypt                      PB448343003808ibaYHTlqy0Zd000000000007PB20180401120073802255313751922     NBaRTznQJLabzI7CbO6NdAVJvH8GcIuJ
24815985407522DEgL6CD4PuKsYXagYk9DM9kYPDenM6NxvxXPp            mcsRrXQpKLURdhPqraXrDmsSMbS                  03784sTtNCBiWDIYCZ  70107512IeLEZju        FWVYdUNrozNUceWILouIlO        PB764074756441ENAd1vr6xAxx000000000001PB20110323090076761996070847631     sRJ2xEAQrdZHwXAV9mB51cfZFAD6Elt7
14285171965076WqkzHthYT4OvcgceO6MRhE                           bajqjGatvcpNDfGhUxwCXppRHeUEfbw              05871cODb           02198851HcoehwpulE     A                             PB0618388732410IzUqHU4UIWt000000000012PB20170101060049699079380075867     X2EIZwpZwqrY1uv3lDKLzGPSJGLmgpUH
00042038057591FLxqzQL0vppN4QBww0A0n                            iajatXTXqBmCp                                29020tVkigiHtZVvWE  97191472tSTGLxOyDTELe  pFIMbVVFEGuqIDkKuNDFnXGAARksXCPB651085717199U4kOFXAmCZ3K000000000015PB20200602140015923793580000009     3s0M6gaOElTYGjKEkYLtGyy8jWC5NaBE
750902461466501CYYgLI0S2YtH5hkrSso9P2KKVLfi25JfSLREWB2atf6FF   CBvBEuTgNSKqWrdDeLuaZNaxUUHFDsN              28980jotuArDMz      29181231bBh            eLgAgyl                       PB806687298530XKWc1YvF73dI000000000008PB20190914030059716573900916653     7lg5LsjfGGzqXmJZYCB697ugsSJk33nt
57988786498007M2VYiRUtHnzvLYL59em0n5QU3P0H                     nJXMqINEPNbkvoIvGp                           20765nTMJBF         64997604z              ltwiDHINzRDVvFXtolbtgQsZa     PB4743794148418y2gYeiHqfef000000000003PB20120725160035589740030007282     kjPLr4ceVpgwkW0QolvK4q3fHOMz1czJ
25553747383862WUUietbVrySdW5UGwuGP3eVKll7NvG215                RExALjBm                                     05772gKbZJBMqCYqh   18424744IvWlYn         UhhbIMVWbjOnrOOLqJo           PB0668594805162QyVZIZsSWLo000000000010PB20131020160072949466470007304     OFJUbasHU5XWHrQfXkQpiJdQvCwoD4yg
000113036055546Nt0oxn1fAVwUP2udbRJM9nVCm1ZE263oSnim            sNqrwPZtqwRcnchJdjqpMZQxWQNqkqolssC          00037VKnEktVXcoKrbz 22403494iOuNr          Trtpap                        PB465864536302H9AIuNBDJtL7000000000015PB20160105080076851713555649679     xuDChrtnMDYUPfG1EPSLHxMQq7nhfnnv
20835025550376tqxhDygYbic67s2FMfy8NLQXrXvZ                     grwqrrjIOEMkwfiaDpHQYlpkelQzGzDsI            00011lpxIZeVeEJYRan 76333202NbVD           nMnPpXymiJtLpaxNCypywsjEfFy   PB956885355882chJwhggdYYdT000000000009PB20150620130098415922970000079     aMiQX4VhAnHFWQnHDbvTIkgM385g6y0Q
00013208374259Kl47SfCFiWwHIJ8id44xKOPhtl                       IUhkuBxoicqzslFTqjziGzdaNEwxEHYvlgrdMrywv    00469unHOTw         76493737RWJ            JLYCHEJhSFWZapZsbhTCsiZdOZEu  PB6931339004440YTl6GmmVfHh000000000014PB20200701100069672535660216539     s7CWTXNmPZqlhX05c2eQCzAmui9dqBMD
33688624426264N5KI7h8DEWIXZZzXfyprS2ojkCYvGnAqBac              ifakJ                                        02774cJLjtWzeNoQbM  82711123PJvsFHaKghR    UoG                           PB803722393191OATE5snkOXvv000000000004PB20190802160082509456590002737     aC6M3EP0qBBqSrq5jDVSD63YivpYGCxd
93567137689527F37c7xUFCHYKMUgduaJHFywMvn8n620lMl4WilvRV6G      LznSgkbqApqVcPeECrSwaWikOaMHmJFo             00001b              63556791qIeNVzWov      mQglJ                         PB484037027789vuklh9YxIu4V000000000010PB20140806010105781815370020523     F64Ay1moMWvQ9W8pOzsu6o0WuHjOQUfN
